:100000000C94C5000C94ED000C94ED000C94ED00E4
:100010000C94ED000C94ED000C94ED000C94ED00AC
:100020000C94ED000C94ED000C94ED000C94ED009C
:100030000C94ED000C94ED000C94ED000C94ED008C
:100040000C941B0E0C94ED000C948D0F0C94D00F9F
:100050000C94ED000C94ED000C94ED000C94ED006C
:100060000C94DA0B0C94ED00084AD73B3BCE016EA2
:1000700084BCBFFDC12F3D6C74319ABD56833DDAFF
:100080003D00C77F11BED9E4BB4C3E916BAAAABE0E
:10009000000000803F05A84CCDB2D44EB93836A937
:1000A000020C50B9918688083CA6AAAA2ABE000074
:1000B00000803F07634236B79BD8A71A39685618A5
:1000C000AEBAAB558C1D3CB7CC5763BD6DEDFD751D
:1000D0003EF6177231BF000000803F08000000BEEE
:1000E000922449123EABAAAA2ABECDCCCC4C3E00EB
:1000F000000080BEABAAAAAA3E00000000BF00001C
:1001000000803F0000000000084178D3BB4387D146
:10011000133D190E3CC3BD4282AD2B3E68EC827686
:10012000BED98FE1A93E4C80EFFFBE01C4FF7F3FE7
:1001300000000000000000000700020100000304AE
:10014000060000000000000000010204081020402A
:100150008001020408102001020408102004040495
:100160000404040404020202020202030303030360
:100170000300000000250028002B000000000024E0
:100180000027002A0000F80A8C1011241FBECFEFB0
:10019000D8E0DEBFCDBF13E0A0E0B1E0E8EAFEE2C8
:1001A00002C005900D92A633B107D9F714E0A6E37B
:1001B000B3E001C01D92A83DB107E1F711E0CAE824
:1001C000D1E004C02297FE010E944E17C638D10725
:1001D000C9F70E94E2100C9452170C940000DC0145
:1001E000ED91FC910190F081E02D0994CF936EE1A7
:1001F00070E085E693E00E94E00A62E070E085E648
:1002000093E00E94EF0061E870E085E693E00E94D1
:10021000EF0085E693E00E94F50A46E050E06EE1CB
:1002200070E085E693E00E94D30A85E693E00E94A1
:10023000250A06979CF185E693E00E942D0AC82FB7
:1002400085E693E00E942D0A3C2F20E0822B932B21
:1002500090933D0380933C0385E693E00E942D0A32
:10026000C82F85E693E00E942D0A3C2F20E0822BC8
:10027000932B909339038093380385E693E00E9493
:100280002D0AC82F85E693E00E942D0A3C2F20E01E
:10029000822B932B90933B0380933A03CF91089545
:1002A0002F923F924F925F926F927F928F929F9286
:1002B000AF92BF92CF92DF92EF92FF920F931F9374
:1002C000CF93DF93CDB7DEB769970FB6F894DEBF53
:1002D0000FBECDBF988F8F8B8D7F019709F0E7C13F
:1002E00061E171E08EE294E00E944A116EE170E0FB
:1002F00085E693E00E94E00A60E070E085E693E026
:100300000E94EF0061E770E085E693E00E94EF0055
:1003100085E693E00E94F50A0E94F60060913C0396
:1003200070913D0300913A0310913B0320903803F4
:100330003090390391E0083C11050CF090E081E029
:10034000683C71050CF080E0892B31F728EC22160F
:10035000310414F3C0900C01D0900D01E0900E0117
:10036000F0900F01882777FD8095982F0E94351413
:10037000A70196010E944E154B015C0160934A0350
:1003800070934B0380934C0390934D03B8018827DF
:1003900077FD8095982F0E943514A70196010E9441
:1003A0004E152B013C0160934603709347038093E5
:1003B000480390934903B101882777FD8095982FD2
:1003C0000E943514A70196010E944E156B017C0115
:1003D00060934203709343038093440390934503D7
:1003E000A501940160E070E081E994E40E949A1311
:1003F000609308017093090180930A0190930B01A7
:10040000A301920160E070E081E994E40E949A13F4
:100410006093040170930501809306019093070196
:10042000A701960160E070E087E894E40E949A13C7
:100430006093000170930101809302019093030186
:100440006EE170E085E693E00E94E00A60E070E013
:1004500085E693E00E94EF0062E770E085E693E0B6
:100460000E94EF0085E693E00E94F50A0E94F600E4
:1004700060913C0370913D0300913A0310913B035E
:10048000209038033090390391E009338FEF18073B
:100490000CF490E081E06933EFEF7E070CF480E02C
:1004A000892B21F7F9E32F16FFEF3F06FCF680902A
:1004B0000C0190900D01A0900E01B0900F018827C3
:1004C00077FD8095982F0E943514A50194010E9414
:1004D0004E156B017C0160934A0370934B0380932C
:1004E0004C0390934D03B801882777FD8095982F92
:1004F0000E943514A50194010E944E152B013C0168
:100500006093460370934703809348039093490395
:10051000B101882777FD8095982F0E943514A50199
:1005200094010E944E154B015C016093420370934D
:100530004303809344039093450320E030E0A901F6
:10054000C701B6010E944315A701960118160CF0C9
:10055000505860E070E081E994E40E949A13209181
:1005600008013091090140910A0150910B010E944C
:10057000071320E030E040E05FE30E944E156093F7
:1005800008017093090180930A0190930B0120E008
:1005900030E0A901C301B2010E944315A3019201F9
:1005A00018160CF0505860E070E081E994E40E9465
:1005B0009A13209104013091050140910601509158
:1005C00007010E94071320E030E040E05FE30E9453
:1005D0004E1560930401709305018093060190937A
:1005E000070120E030E0A901C501B4010E944315D4
:1005F000A501940118160CF0505860E070E087E8EF
:1006000094E40E949A1320910001309101014091DD
:100610000201509103010E94071320E030E040E006
:100620005FE30E944E156093000170930101809377
:100630000201909303016BE371E08EE294E00E946B
:100640002D11409108015091090160910A017091AA
:100650000B0122E030E08EE294E00E94F4126CE4A0
:1006600071E08EE294E00E942D11409104015091BE
:100670000501609106017091070122E030E08EE2F1
:1006800094E00E94F4126DE571E08EE294E00E9425
:100690002D11409100015091010160910201709172
:1006A000030122E030E08EE294E00E94F4126EE159
:1006B00070E085E693E00E94E00A60E070E085E685
:1006C00093E00E94EF0068E770E085E693E00E9407
:1006D000EF0085E693E00E94F50A8F89988D0297D6
:1006E000029708F0B6C26EE671E08EE294E00E94D6
:1006F0004A116AE971E08EE294E00E944A111AE020
:100700000E94F6001150E1F7809136039091370373
:10071000019709F05EC06DEF71E08EE294E00E94F7
:100720004A1168EE73E080E090E00E94940E65E16B
:1007300072E08EE294E00E944A1168EE73E080E07D
:1007400090E00E94940E67E172E08EE294E00E94D5
:100750004A1168EE73E080E090E00E94940E69E137
:1007600072E08EE294E00E944A1168EE73E080E04D
:1007700090E00E94940E6BE172E08EE294E00E94A1
:100780004A118EE294E00E9436111AE06DE172E0A7
:100790008EE294E00E942D111150C1F76DE172E0DC
:1007A0008EE294E00E944A1165E272E08EE294E0EB
:1007B0000E944A111AE06DE172E08EE294E00E941C
:1007C0002D111150C1F76DE172E08EE294E00E94AC
:1007D0004A110E94650E6B017C011B8A1C8A2AE764
:1007E0002D8B85E48E8B1F86188AEAE7E98BF5E46A
:1007F000FA8B212C312C2D878E8719861A86EB8750
:10080000F5ECFC871D821E822F8385EC8887198278
:100810001A82EB83FC830E94650E6C197D098E0998
:100820009F09613375478105910508F025C10E9434
:10083000F60080900C0190900D01A0900E01B090F8
:100840000F0180913C0390913D03BC01882777FD07
:100850008095982F0E943514A50194010E944E1591
:10086000209108013091090140910A0150910B013A
:100870000E944E152B013C0160934A0370934B0379
:1008800080934C0390934D0380913A0390913B03E6
:10089000BC01882777FD8095982F0E943514A5010B
:1008A00094010E944E152091040130910501409160
:1008B0000601509107010E944E1560934603709304
:1008C00047038093480390934903809138039091A4
:1008D0003903BC01882777FD8095982F0E94351435
:1008E000A50194010E944E15209100013091010153
:1008F00040910201509103010E944E156093420302
:10090000709343038093440390934503809136038F
:1009100090913703019781F522E030E0B301A20105
:100920008EE294E00E94F2126FE172E08EE294E0B7
:100930000E942D1140914603509147036091480356
:100940007091490322E030E08EE294E00E94F212BE
:100950006FE172E08EE294E00E942D11409142031B
:1009600050914303609144037091450322E030E0CD
:100970008EE294E00E94F41200914A0310914B031E
:1009800020914C03298F80914D038F8B9801498DC5
:10099000582F69817A818B819C810E94431518169A
:1009A00034F009831A83E98DEB83FF89FC838090FF
:1009B000460390904703A0904803B09049039401E8
:1009C000A5016D817E818F8198850E94431518163F
:1009D00024F08D829E82AF82B88640904203509070
:1009E000430360904403709045039201A30169851D
:1009F0007A858B859C850E944315181624F04986BC
:100A00005A866B867C869801498D5F89B1018D85F8
:100A10009E850E94931387FF05C081012D85298F34
:100A20008E858F8B9401A5016F85788989899A8934
:100A30000E94931387FF04C08F849888A988BA887E
:100A40009201A3016B897C898D899E890E949313F1
:100A500087FF04C04B885C886D887E884B8A5C8ADF
:100A60006D8A7E8A8F86988AA98ABA8A1801E98D4A
:100A7000ED87FF89FE87CFCE8091360390913703B3
:100A8000019741F58EE294E00E9436111AE06DE183
:100A900072E08EE294E00E942D111150C1F76DE1D9
:100AA00072E08EE294E00E944A1161E272E08EE20E
:100AB00094E00E944A111AE06DE172E08EE294E047
:100AC0000E942D111150C1F76DE172E08EE294E0A9
:100AD0000E944A1191014D855E8569817A818B81E1
:100AE0009C810E94061320E030E040E05FE30E941A
:100AF0004E1529813A814B815C810E9406136093D7
:100B000056037093570380935803909359032F858E
:100B1000388949895A896D817E818F8198850E94A3
:100B2000061320E030E040E05FE30E944E152D8187
:100B30003E814F8158850E94061360935203709343
:100B4000530380935403909355032B893C894D891B
:100B50005E8969857A858B859C850E94061320E0D5
:100B600030E040E05FE30E944E1529853A854B85D1
:100B70005C850E94061360934E0370934F0380932D
:100B800050039093510363E472E08EE294E00E947C
:100B90002D11409156035091570360915803709165
:100BA000590322E030E08EE294E00E94F21260E508
:100BB00072E08EE294E00E944A1164E572E08EE2F7
:100BC00094E00E942D114091520350915303609183
:100BD00054037091550322E030E08EE294E00E94CD
:100BE000F21260E572E08EE294E00E944A1161E642
:100BF00072E08EE294E00E942D1140914E035091DC
:100C00004F03609150037091510322E030E08EE277
:100C100094E00E94F21260E572E08EE294E0699640
:100C20000FB6F894DEBF0FBECDBFDF91CF911F91FD
:100C30000F91FF90EF90DF90CF90BF90AF909F907B
:100C40008F907F906F905F904F903F902F900C947B
:100C50004A1169960FB6F894DEBF0FBECDBFDF9183
:100C6000CF911F910F91FF90EF90DF90CF90BF90A9
:100C7000AF909F908F907F906F905F904F903F903C
:100C80002F900895CF92DF92EF92FF920E94F6008C
:100C9000C0900C01D0900D01E0900E01F0900F017A
:100CA00060913C0370913D03882777FD8095982FD4
:100CB0000E943514A70196010E944E15209108014B
:100CC0003091090140910A0150910B010E944E158B
:100CD0002091560330915703409158035091590386
:100CE0000E94071360934A0370934B0380934C0355
:100CF00090934D0360913A0370913B03882777FDF1
:100D00008095982F0E943514A70196010E944E15D8
:100D10002091040130910501409106015091070195
:100D20000E944E1520915203309153034091540379
:100D3000509155030E940713609346037093470335
:100D4000809348039093490360913803709139036D
:100D5000882777FD8095982F0E943514A70196016A
:100D60000E944E1520910001309101014091020135
:100D7000509103010E944E1520914E0330914F0374
:100D800040915003509151030E9407136093420316
:100D9000709343038093440390934503FF90EF9037
:100DA000DF90CF900895CF92DF92EF92FF920E9452
:100DB0004206C0904603D0904703E0904803F0906D
:100DC000490320E030E0A901C701B6010E944315A4
:100DD0001816DCF4A701960160914A0370914B0349
:100DE00080914C0390914D030E949A130E946B13C3
:100DF00023E333E345E652E40E944E159B01AC0128
:100E000060E070E084EB92E423C020E030E0A901D0
:100E1000C701B6010E94931387FF25C0A701960161
:100E200060914A0370914B0380914C0390914D0364
:100E30000E949A130E946B1323E333E345E652E4C6
:100E40000E944E159B01AC0160E070E087E893E4DE
:100E50000E94061360933E0370933F038093400308
:100E6000909341032DC020E030E0A90160914A0336
:100E700070914B0380914C0390914D030E9493130A
:100E800087FF16C020E030E0A901C701B6010E942B
:100E9000931381110DC080E090E0A4E3B3E480934C
:100EA0003E0390933F03A0934003B093410308C0D7
:100EB00010923E0310923F031092400310924103A0
:100EC000FF90EF90DF90CF9008951F93CF93DF9323
:100ED000EC016EE170E085E693E00E94E00A61E0DB
:100EE00070E085E693E00E94EF00209771F488E4BB
:100EF00091EEAAE3BFE380930C0190930D01A093C0
:100F00000E01B0930F0110E075C0C130D10571F42E
:100F10008FE195E8ABE6BFE380930C0190930D0160
:100F2000A0930E01B0930F0110E264C0C230D1054E
:100F300071F486EF98E2ACE9BFE380930C019093E3
:100F40000D01A0930E01B0930F0110E453C0C33004
:100F5000D10571F48CE59FE8A2ECBFE380930C010E
:100F600090930D01A0930E01B0930F0110E642C0C3
:100F7000C430D10571F48EEA97E4A1E1B0E4809326
:100F80000C0190930D01A0930E01B0930F0110E896
:100F900031C0C530D10571F48AE097EDA3E2B0E429
:100FA00080930C0190930D01A0930E01B0930F015B
:100FB00010EA20C0C630D10571F485E89BEEA1E4AB
:100FC000B0E480930C0190930D01A0930E01B093B7
:100FD0000F0110EC0FC0279769F483E393E3ABE8AC
:100FE000B0E480930C0190930D01A0930E01B09397
:100FF0000F0110EE612F85E693E00E947D0A63E009
:1010000070E085E693E00E94EF0085E693E00E94A1
:10101000F50A6EE672E08EE294E00E942D11409196
:101020000C0150910D0160910E0170910F0122E0B1
:1010300030E08EE294E00E94F21262E872E08EE20A
:1010400094E0DF91CF911F910C944A1140E855E252
:1010500060E070E08EE294E00E940B1085E693E081
:101060000E94BC0A61E08DE00C94AC0DDF92EF921F
:10107000FF920F931F93CF93DF937C01D62E00E056
:1010800010E0C0E0D0E00E151F0534F58D2D0E9454
:10109000070DBC01882777FD8095982F0E94351495
:1010A0009B01AC0166E676E38DE395E40E949A131A
:1010B00021EB30E54BE95FE30E94B1150E94021479
:1010C0006115710531F0683E43E0740714F4C60FF2
:1010D000D71F0F5F1F4FD7CFCE01B7010E94021756
:1010E000CB016135710514F080E590E0DF91CF917F
:1010F0001F910F91FF90EF90DF90089586E696E69E
:10110000A9E9B2E48093560390935703A093580340
:10111000B09359038FE195E0AFE3B3E480935203BA
:1011200090935303A0935403B09355038CE59FEC25
:10113000A0EBB3E480934E0390934F03A09350032E
:10114000B09351038CEE91E5A8E7BFE380930801CB
:1011500090930901A0930A01B0930B0184EA90E7F0
:10116000ADE7BFE38093040190930501A0930601CE
:10117000B09307018FE195E8ABE6BFE380930001F0
:1011800090930101A0930201B093030182E090E0EB
:101190000E946507109237031092360383E090E0B7
:1011A0000C9450010E94D30660913E0370913F035E
:1011B00080914003909141030E9402147093630355
:1011C0006093620308950E94D30660916203709158
:1011D0006303882777FD8095982F0E9435149B0123
:1011E000AC0160913E0370913F0380914003909168
:1011F00041030E9406130E940214709361036093DE
:1012000060036EE070E082E390E00E943608909305
:101210005F0380935E036FE070E082E390E00E94E2
:10122000360890935D0380935C0360E170E082E395
:1012300090E00E94360890935B0380935A030895D0
:1012400060916003709161034AE050E08EE294E0A7
:101250000E94FF116AE872E08EE294E00E942D1174
:1012600060915E0370915F034AE050E08EE294E08B
:101270000E94FF116AE872E08EE294E00E942D1154
:1012800060915C0370915D034AE050E08EE294E06F
:101290000E94FF116AE872E08EE294E00E942D1134
:1012A00060915A0370915B034AE050E08EE294E053
:1012B0000E94FF118EE294E00C9436110F931F935D
:1012C0000E94650E8B019C0164EF71E080E090E06C
:1012D000601B710B820B930B0E9435142EE233EED0
:1012E0004DE45BE30E944E150E94971320E030E02E
:1012F0004EEF52E40E944E1520E030E040E053E40F
:101300000E9407130E9402148DE01F910F910C940C
:10131000240DCF92DF92EF92FF920F931F93CF9302
:10132000DF938C01C0E0D0E06B01EE24D7FCE094A9
:10133000FE2CC017D10794F461E08DE00E94E50D0A
:10134000C701B6010E94940E60E08DE00E94E50D99
:10135000C701B6010E94940E2196EBCFDF91CF9189
:101360001F910F91FF90EF90DF90CF90089561E073
:101370008DE00C94E50D60E08DE00C94E50D8EE2BF
:1013800094E00E94220F823389F1A4F4803329F182
:10139000813309F04FC06AE972E08EE294E00E9466
:1013A0004A110E94B7090E947E080E94BB0964EBA3
:1013B00072E026C0833349F18433E1F5109264036F
:1013C00069EF72E08EE294E00E944A1162E370E0FD
:1013D00085E090E00E9489092DC064E670E081E01C
:1013E00090E00E9489096CE872E00AC064E670E04F
:1013F00083E090E00E9489090E94D2086EEC72E0BE
:101400008EE294E00E944A1115C069EE72E08EE20D
:1014100094E00E944A1162E370E085E090E00E944F
:10142000890962E070E080E090E00E94940E81E023
:101430008093640380916403882331F00E945E09E5
:101440000E94E3080C94200908958091950390E090
:1014500020919603821B9109089520919603809113
:101460009503281750F4E22FF0E0E956FC4F8081F5
:1014700090E02F5F2093960308958FEF9FEF0895DC
:10148000E091960380919503E81730F4F0E0E95677
:10149000FC4F808190E008958FEF9FEF08950895AD
:1014A000CF92DF92EF92FF920F931F93CF93DF9330
:1014B0007C01CB018A0120917103222389F0EB0189
:1014C0006B01C40ED51ECC15DD0569F06991D701FD
:1014D000ED91FC910190F081E02DC7010995F3CFCA
:1014E000642F0E94B10BC801DF91CF911F910F9122
:1014F000FF90EF90DF90CF900895CF93DF931F92EE
:10150000CDB7DEB76983209171032223D1F02091FA
:101510007203203240F021E030E0FC01338322836B
:1015200080E090E015C080917303E82FF0E0EC5864
:10153000FC4F998190838F5F809373038093720334
:1015400005C061E0CE0101960E94B10B81E090E000
:101550000F90DF91CF910895FC011382128248EE23
:1015600053E060E070E044835583668377838CE0CA
:1015700093E09183808308951092960310929503CF
:1015800010927303109272030C94FC0A862F41325E
:1015900008F040E267E973E00E941A0B109296038C
:1015A00080939503089521E00C94C60A81E080930E
:1015B0007103609394031092730310927203089561
:1015C0000C94D60A0F93062F21E04091720364E732
:1015D00073E0809194030E945E0B1092730310924B
:1015E0007203109271030F91089561E00C94E20A66
:1015F00085E693E00C94AC0A1092240481E0809379
:1016000022041092210461E082E10E94E50D61E074
:1016100083E10E94E50DE9EBF0E080818E7F80831D
:1016200080818D7F808388E48093B80085E48093F7
:10163000BC000895413208F03FC0909124049111FC
:10164000FCCF91E090932404209322042FEF209369
:10165000B7031092FC03240F2093FB039093230401
:1016600090912304880F892B809323048091210477
:10167000813041F410922104809123048093BB00B7
:1016800085EC01C085EE8093BC00809124048130FC
:10169000E1F38091FC03841710F44091FC032DEFDB
:1016A00033E0FB01D9018A2F821B841718F48D9136
:1016B0008193F9CF842F089580E008950F934132EC
:1016C00008F046C0909124049111FCCF92E09093D1
:1016D0002404009322049FEF9093B7031092FC031D
:1016E0004093FB03FB016DEF73E0DB019A2F961B28
:1016F000941718F491919D93F9CF1092230490912F
:101700002304880F892B8093230480912104813046
:1017100041F410922104809123048093BB0085EC56
:1017200001C085EE8093BC00222321F08091240427
:101730008230E1F38091B7038F3F61F08091B7036E
:10174000803251F08091B703803341F483E007C0C9
:1017500081E005C080E003C082E001C084E00F9119
:101760000895613298F420912404243089F4609320
:10177000D903FC018BED93E0DC012A2F281B2617EF
:1017800018F421912D93F9CF80E0089581E0089518
:1017900082E0089585ED8093BC008091BC0084FDBB
:1017A000FCCF10922404089585EC8093BC00109225
:1017B000240408951F920F920FB60F9211242F93B5
:1017C0003F934F935F936F937F938F939F93AF93C9
:1017D000BF93EF93FF938091B900887F803609F41F
:1017E0009CC068F5883209F45BC090F4803109F43C
:1017F00054C038F4882309F4F5C0883009F44DC08A
:10180000F5C0883109F44CC0803209F45DC0EEC0E7
:10181000803409F468C048F4803309F455C0883333
:1018200009F0E4C08093B703A8C0803509F44FC025
:10183000883509F45DC0883409F0D8C0D5C088392E
:1018400009F4C6C0A8F4883709F467C038F48836AC
:1018500009F463C0803709F460C0C8C0883809F44F
:10186000B7C0803909F45FC0803809F0BFC05BC0E1
:10187000803B09F485C038F4803A09F466C0883AA0
:1018800009F47EC0B3C0803C09F4A6C0883C09F4CA
:10189000A3C0883B09F489C0A9C08091230410C06B
:1018A0009091FC038091FB03981770F5E091FC0385
:1018B00081E08E0F8093FC03F0E0E350FC4F8081C9
:1018C0008093BB0085EC85C08093B7038DC0E09109
:1018D000FC0381E08E0F8093FC038091BB00F0E05D
:1018E000E350FC4F80839091FC038091FB036DC01B
:1018F000E091FC0381E08E0F8093FC038091BB009C
:10190000F0E0E350FC4F80838091220481116CC091
:1019100081E08093210484EA60C083E08093240402
:101920001092B803CFCF8091B803803208F050C036
:10193000E091B80381E08E0F8093B8038091BB00E3
:10194000F0E0E754FC4F8083BDCF8091B803803234
:1019500030F4E091B803F0E0E754FC4F10820E94AD
:10196000CA0B6091B80370E0E0911D04F0911E0471
:1019700089EB93E009951092B8030E94D40B36C00E
:1019800084E0809324041092DA031092D903E0914A
:101990001F04F091200409958091D903811105C09D
:1019A00081E08093D9031092DB03E091DA0381E0B8
:1019B0008E0F8093DA03F0E0E552FC4F8081809334
:1019C000BB009091DA038091D903981708F47ACF7D
:1019D00085E88093BC000AC085EC8093BC0010921F
:1019E000240404C01092B7030E94CA0BFF91EF9128
:1019F000BF91AF919F918F917F916F915F914F9127
:101A00003F912F910F900FBE0F901F9018958E3021
:101A100008F08E5087702091100190E4299F90016A
:101A20001124822B80937C0080917A0080648093C3
:101A30007A0080917A0086FDFCCF80917800209119
:101A4000790090E0922B08951F93CF93DF93182F86
:101A5000EB0161E00E94AC0D209711F460E004C03E
:101A6000CF3FD10539F461E0812FDF91CF911F91F4
:101A70000C94E50DE12FF0E0EB5CFE4FE491E330D8
:101A8000F9F048F4E130B9F0E230A1F584B58062B4
:101A900084BDC8BD34C0E630E9F0E73019F1E43068
:101AA00049F580918000806280938000D0938B0004
:101AB000C0938A0024C084B5806884BDC7BD1FC0A0
:101AC00080918000806880938000D0938900C093CB
:101AD000880015C08091B00080688093B000C093EA
:101AE000B3000DC08091B00080628093B000C093BD
:101AF000B40005C0C038D1050CF0B5CFAFCFDF9131
:101B0000CF911F910895833081F028F4813099F0AE
:101B10008230A1F008958630A9F08730B9F0843082
:101B2000D1F4809180008F7D03C0809180008F77F9
:101B300080938000089584B58F7702C084B58F7D2F
:101B400084BD08958091B0008F7703C08091B0006C
:101B50008F7D8093B0000895CF93DF9390E0FC01D8
:101B6000E75BFE4F2491FC01E35AFE4F84918823EA
:101B700049F190E0880F991FFC01E558FE4FA591AF
:101B8000B4918F589E4FFC01C591D4919FB76111BC
:101B900008C0F8948C91209582238C9388818223AD
:101BA0000AC0623051F4F8948C91322F309583231F
:101BB0008C938881822B888304C0F8948C91822B2B
:101BC0008C939FBFDF91CF9108950F931F93CF9375
:101BD000DF931F92CDB7DEB7282F30E0F901EB5C21
:101BE000FE4F8491F901E75BFE4F1491F901E35A2E
:101BF000FE4F04910023C9F0882321F069830E94DD
:101C0000830D6981E02FF0E0EE0FFF1FEF58FE4FCC
:101C1000A591B4919FB7F8948C91611103C0109570
:101C2000812301C0812B8C939FBF0F90DF91CF91B7
:101C30001F910F9108951F920F920FB60F921124CA
:101C40002F933F938F939F93AF93BF9380912604DD
:101C500090912704A0912804B09129043091250483
:101C600023E0230F2D3720F40196A11DB11D05C0DF
:101C700026E8230F0296A11DB11D20932504809311
:101C8000260490932704A0932804B09329048091FC
:101C90002A0490912B04A0912C04B0912D0401965C
:101CA000A11DB11D80932A0490932B04A0932C04B2
:101CB000B0932D04BF91AF919F918F913F912F9140
:101CC0000F900FBE0F901F9018952FB7F89460914A
:101CD00026047091270480912804909129042FBF35
:101CE00008953FB7F89480912A0490912B04A09115
:101CF0002C04B0912D0426B5A89B05C02F3F19F0E8
:101D00000196A11DB11D3FBF6627782F892F9A2FFD
:101D1000620F711D811D911D42E0660F771F881FA4
:101D2000991F4A95D1F70895CF92DF92EF92FF92D3
:101D3000CF93DF936B017C010E94710EEB01C11404
:101D4000D104E104F10479F00E94710E6C1B7D0B4B
:101D5000683E7340A0F381E0C81AD108E108F10899
:101D6000C851DC4FECCFDF91CF91FF90EF90DF9027
:101D7000CF900895789484B5826084BD84B58160E5
:101D800084BD85B5826085BD85B5816085BDEEE683
:101D9000F0E0808181608083E1E8F0E01082808162
:101DA00082608083808181608083E0E8F0E08081D0
:101DB00081608083E1EBF0E0808184608083E0EBF0
:101DC000F0E0808181608083EAE7F0E080818460D8
:101DD0008083808182608083808181608083808134
:101DE000806880831092C1000895FC0124853585A8
:101DF000F901E05CFF4F80819181F901EE5BFF4FBB
:101E000020813181821B930B8F7399270895FC01E8
:101E100084859585FC01E05CFF4F40815181FC0188
:101E2000EE5BFF4F208131814217530741F0019053
:101E3000F081E02DE80FF91F808190E008958FEF89
:101E40009FEF0895FC0184859585FC01E05CFF4FC0
:101E500040815181FC01EE5BFF4F208131814217AF
:101E6000530779F0A081B181A80FB91F8C9120810F
:101E700031812F5F3F4F2F7333273183208390E0D1
:101E800008958FEF9FEF0895FC0181A1882329F029
:101E9000A489B5898C9186FFFBCF11A20895CF93B9
:101EA000DF93FC0126853785D901A05CBF4F8D915A
:101EB0009C91119701968F739927E901CE5BDF4FB3
:101EC0004881598184179507D9F30D90BC91A02DB5
:101ED000A20FB31F6C93A685B785A05CBF4F119668
:101EE0009C938E93A689B7892C9181E090E0078C12
:101EF00002C0880F991F0A94E2F7282B2C9381E0E7
:101F000081A30488F589E02D80818064808381E04D
:101F100090E0DF91CF91089508951F920F920FB630
:101F20000F9211242F933F934F938F939F93EF938F
:101F3000FF938091C00082FD1CC04091C60080913B
:101F4000D4049091D50401968F7399272091D604DB
:101F50003091D7048217930771F0E091D404F09187
:101F6000D504EC56FB4F40839093D5048093D40462
:101F700002C08091C600FF91EF919F918F914F9188
:101F80003F912F910F900FBE0F901F9018958EE2EA
:101F900094E00E94F50E892B11F00C948C0F08959B
:101FA0001F920F920FB60F9211242F933F938F938E
:101FB0009F93EF93FF93209190043091910480912F
:101FC0009204909193042817390731F48091C1004D
:101FD0008F7D8093C10014C0E0919204F09193042E
:101FE000E05BFB4F208180919204909193040196D5
:101FF0008F73992790939304809392042093C60043
:10200000FF91EF919F918F913F912F910F900FBE74
:102010000F901F901895CF92DF92EF92FF92CF937F
:10202000DF93EC016A017B01411581EE58076105E0
:102030007105F9F0EC89FD8981E090E008A002C00B
:10204000880F991F0A94E2F7808360E079E08DE3BE
:1020500090E0A70196010E9416172150310941090D
:1020600051095695479537952795211580E13807F1
:1020700098F0EC89FD89108260E874E88EE190E0C8
:10208000A70196010E9416172150310941095109F3
:102090005695479537952795E889F9893083EA89D8
:1020A000FB89208319A2EE89FF89408181E090E0BD
:1020B0009C010C8C02C0220F331F0A94E2F7422BC2
:1020C0004083EE89FF8940819C010D8C02C0220F64
:1020D000331F0A94E2F7422B4083EE89FF89408147
:1020E0009C010E8C02C0220F331F0A94E2F7422B90
:1020F0004083EE89FF8920810F8C02C0880F991FD1
:102100000A94E2F7809582238083DF91CF91FF903C
:10211000EF90DF90CF900895109231041092300428
:1021200088EE93E0A0E0B0E0809332049093330413
:10213000A0933404B09335048CE193E090932F0482
:1021400080932E0484E994E090933B0480933A04B6
:1021500080E594E090933D0480933C0485EC90E00E
:1021600090933F0480933E0484EC90E0909341046C
:102170008093400480EC90E0909343048093420469
:1021800081EC90E0909345048093440482EC90E0CD
:10219000909347048093460486EC90E09093490422
:1021A0008093480484E080934A0483E080934B0446
:1021B00087E080934C0485E080934D0481E0809318
:1021C0004E0408950E94BA0E0E942608C7ECDFE074
:1021D0000E94BF092097E1F30E94C70FF9CFCF9269
:1021E000DF92EF92FF920F931F93CF93DF936C01D7
:1021F0007A01EB01E60EF71E00E010E0CE15DF05D8
:1022000061F06991D601ED91FC910190F081E02D92
:10221000C6010995080F191FF1CFC801DF91CF91B1
:102220001F910F91FF90EF90DF90CF90089561156F
:10223000710581F0DB010D900020E9F7AD014150FF
:102240005109461B570BDC01ED91FC910280F38193
:10225000E02D099480E090E008950C941711DC01C2
:10226000ED91FC910190F081E02D09940F931F9363
:10227000CF93DF93EC016DE00E942F118C016AE097
:10228000CE010E942F11800F911FDF91CF911F91DE
:102290000F9108950F931F93CF93DF93EC010E944A
:1022A00017118C01CE010E943611800F911FDF9112
:1022B000CF911F910F9108958F929F92AF92BF92ED
:1022C000CF92DF92EF92FF920F931F93CF93DF9302
:1022D000CDB7DEB7A1970FB6F894DEBF0FBECDBF66
:1022E0007C01C42EE52FCB01D22E19A221E02D15A1
:1022F00010F02AE0D22E8E010F5D1F4F8D2C912CF5
:10230000A12CB12C6C2D7E2FA50194010E941617D3
:102310008C2DD29E80191124015011098A3014F499
:10232000805D01C0895CF80180832115310541057C
:10233000510521F0C22EE32FCA01E4CFB801C70135
:102340000E941711A1960FB6F894DEBF0FBECDBF45
:10235000DF91CF911F910F91FF90EF90DF90CF9081
:10236000BF90AF909F908F900895CF92DF92EF92A1
:10237000FF920F931F93CF93DF93EC016A017B01D0
:102380002115310579F4E881F9810190F081E02D82
:10239000642FDF91CF911F910F91FF90EF90DF900D
:1023A000CF9009942A303105E9F477FF1AC06DE225
:1023B0000E942F118C0144275527BA014C195D0941
:1023C0006E097F092AE0CE010E945C11800F911FE7
:1023D000DF91CF911F910F91FF90EF90DF90CF9001
:1023E00008952AE0B701A601CE01DF91CF911F9198
:1023F0000F91FF90EF90DF90CF900C945C119A01B9
:10240000AB01662757FD6095762F0C94B5114F925E
:102410005F926F927F928F929F92AF92BF92CF9274
:10242000DF92EF92FF920F931F93CF93DF93EC0114
:102430006A017B01B22E9A01AB01C701B6010E946D
:102440000016882319F068E273E027C026013701DF
:10245000E89477F82FEF3FEF4FE75FE7C301B20152
:102460000E94001681110DC02FEF3FEF4FE75FE78D
:10247000C301B2010E94931318161CF46CE273E0BE
:102480000CC02FEF3FEF4FE75FE4C701B6010E949A
:1024900043151816ACF460E373E0CE01DF91CF91E1
:1024A0001F910F91FF90EF90DF90CF90BF90AF9072
:1024B0009F908F907F906F905F904F900C9417112A
:1024C0002FEF3FEF4FE75FECC701B6010E94931378
:1024D00087FDE1CF20E030E0A901C701B6010E94ED
:1024E000931387FF0AC06DE2CE010E942F118C0169
:1024F000F7FAF094F7F8F09402C000E010E0A12C95
:1025000060E070E080E09FE3AB1441F020E030E059
:1025100040E251E40E949A13A394F6CF9B01AC01D0
:10252000C701B6010E9407136B017C010E940714CA
:102530002B013C010E9433149B01AC01C701B60181
:102540000E9406136B017C012AE0B301A201CE01B7
:102550000E945C11080F191FBB2039F064E373E07F
:10256000CE010E941711080F191F7B2C772041F113
:1025700020E030E040E251E4C701B6010E944E1570
:102580006B017C010E9402144B01AA2497FCA094C9
:10259000BA2C2AE030E0B501A401CE010E94B511A9
:1025A000080F191FC501B4010E9435149B01AC012D
:1025B000C701B6010E9406136B017C017A94D6CF45
:1025C000C801DF91CF911F910F91FF90EF90DF90A5
:1025D000CF90BF90AF909F908F907F906F905F90C3
:1025E0004F9008950C9407120F931F93CF93DF938E
:1025F000EC010E9407128C01CE010E943611800F5F
:10260000911FDF91CF911F910F9108955058BB27D3
:10261000AA270ED0EDC1B6D130F0BBD120F031F4F5
:102620009F3F11F41EF486C10EF4E095E7FB7CC1D8
:10263000E92F00D280F3BA17620773078407950762
:1026400018F071F49EF518C20EF4E0950B2EBA2F17
:10265000A02D0B01B90190010C01CA01A0011124A8
:10266000FF27591B99F0593F50F4503E68F11A1654
:10267000F040A22F232F342F4427585FF3CF4695E5
:1026800037952795A795F0405395C9F77EF41F1607
:10269000BA0B620B730B840BBAF09150A1F0FF0FD1
:1026A000BB1F661F771F881FC2F70EC0BA0F621FBD
:1026B000731F841F48F4879577956795B795F795AD
:1026C0009E3F08F0B3CF9395880F08F09927EE0F3F
:1026D000979587950895DF93DD27B92FBF7740E859
:1026E0005FE31616170648075B0710F4D92FCFD102
:1026F0009F938F937F936F9380D2E8E6F0E01DD194
:1027000077D12F913F914F915F91D4D1DD2349F043
:102710009058A2EA2AED3FE049EC5FE3D0785D27CC
:1027200087DFDF9165C1DCD008F481E0089539D1FD
:10273000E3956FC10CD05CC12CD140F023D130F0B7
:1027400021F45F3F19F0F0C0511197C1F3C072D16D
:1027500098F39923C9F35523B1F3951B550BBB2768
:10276000AA2762177307840738F09F5F5F4F220F15
:10277000331F441FAA1FA9F333D00E2E3AF0E0E80E
:1027800030D091505040E695001CCAF729D0FE2F5A
:1027900027D0660F771F881FBB1F261737074807EC
:1027A000AB07B0E809F0BB0B802DBF01FF279358A2
:1027B0005F4F2AF09E3F510568F0B6C05EC15F3F93
:1027C000ECF3983EDCF3869577956795B795F7958A
:1027D0009F5FC9F7880F911D9695879597F9089582
:1027E000E1E0660F771F881FBB1F6217730784071E
:1027F000BA0720F0621B730B840BBA0BEE1F88F72D
:10280000E095089504D06894B11137C108951AD1A4
:1028100088F09F5790F0B92F9927B751A0F0D1F0C9
:10282000660F771F881F991F1AF0BA95C9F712C053
:10283000B13081F021D1B1E008951EC1672F782F0A
:102840008827B85F39F0B93FCCF3869577956795BF
:10285000B395D9F73EF490958095709561957F4F2B
:102860008F4F9F4F0895E89409C097FB3EF49095D1
:102870008095709561957F4F8F4F9F4F9923A9F059
:10288000F92F96E9BB279395F695879577956795E8
:10289000B795F111F8CFFAF4BB0F11F460FF1BC02C
:1028A0006F5F7F4F8F4F9F4F16C0882311F096E9BF
:1028B00011C0772321F09EE8872F762F05C066236D
:1028C00071F096E8862F70E060E02AF09A95660F26
:1028D000771F881FDAF7880F9695879597F90895DF
:1028E000990F0008550FAA0BE0E8FEEF1616170621
:1028F000E807F907C0F012161306E407F50798F089
:10290000621B730B840B950B39F40A2661F0232BA1
:10291000242B252B21F408950A2609F4A140A6951D
:102920008FEF811D811D089597F99F6780E870E002
:1029300060E008959FEF80EC0895DF93CF931F939D
:102940000F93FF92EF92DF927B018C01689405C098
:10295000DA2EEF01AFD0FE01E894A59125913591D3
:1029600045915591AEF3EF0163DEFE019701A80199
:10297000DA9479F7DF90EF90FF900F911F91CF914C
:10298000DF91089500240A94161617061806090602
:10299000089500240A9412161306140605060895D5
:1029A000C9CF50D0E8F3E894E0E0BB279F57F0F0A0
:1029B0002AED3FE049EC06C0EE0FBB0F661F771F04
:1029C000881F28F0B23A62077307840728F0B25ACA
:1029D000620B730B840BE3959A9572F7803830F491
:1029E0009A95BB0F661F771F881FD2F790483FC18B
:1029F000092E0394000C11F4882352F0BB0F40F40D
:102A0000BF2B11F460FF04C06F5F7F4F8F4F9F4F4C
:102A10000895EF93E0FF06C0A2EA2AED3FE049ECFB
:102A20005FEB06DEE5DF0F90039401FC9058E5E9CB
:102A3000F0E029C157FD9058440F551F59F05F3FF2
:102A400071F04795880F97FB991F61F09F3F79F0D0
:102A500087950895121613061406551FF2CF469552
:102A6000F1DF08C0161617061806991FF1CF8695D4
:102A70007105610508940895E894BB2766277727B8
:102A8000CB0197F908952CDF08F48FEF08959B018F
:102A9000AC0160E070E080E89FE34CCE0BD0A8CFA3
:102AA00071DF28F076DF18F0952309F03DCF42CF93
:102AB0001124E3CFBFDFA0F3959FD1F3950F50E032
:102AC000551F629FF001729FBB27F00DB11D639FE0
:102AD000AA27F00DB11DAA1F649F6627B00DA11D86
:102AE000661F829F2227B00DA11D621F739FB00D2C
:102AF000A11D621F839FA00D611D221F749F33279C
:102B0000A00D611D231F849F600D211D822F762F34
:102B10006A2F11249F5750408AF0E1F088234AF031
:102B2000EE0FFF1FBB1F661F771F881F915050407D
:102B3000A9F79E3F510570F0F7CE9FCF5F3FECF3B2
:102B4000983EDCF3869577956795B795F795E79569
:102B50009F5FC1F7FE2B880F911D9695879597F97A
:102B60000895FA01EE0FFF1F30962105310599F106
:102B70006115710561F48038BFE39B0749F16894E2
:102B80009038810561F08038BFEF9B0741F09923B1
:102B900042F5FF3FE1053105210511F1E894089464
:102BA000E795D901AA2329F4AB2FBE2FF85FD0F304
:102BB00010C0FF5F70F4A695E0F7F73950F019F0F8
:102BC000FF3A38F49F779F930CD00F9007FC9058F2
:102BD00008953EF0AFCE60E070E080E89FE3089596
:102BE0004FE79F775F934F933F932F9398D02F9109
:102BF0003F914F915F9152DF0CC09B01AC014ECFD2
:102C00006FDE880B990B089519F40EF08DCE34CF3A
:102C100091CE18DFC8F39638C0F707F80F92E89402
:102C20002BE33AEA48EB5FE747DF0F920F920F92F0
:102C30004DB75EB70F92B3D0E3EBF0E07EDE4F917D
:102C40005F91EF91FF91E595EE1FFF1F49F0FE5751
:102C5000E0684427EE0F441FFA95E1F74195550BC4
:102C600025D00F9007FE13CF08959F3F31F091506C
:102C700020F4879577956795B795880F911D969560
:102C8000879597F908959F938F937F936F93FF9301
:102C9000EF939B01AC0102DFEF91FF914EDE2F918C
:102CA0003F914F915F91FACE3FCEDFCFCBDEE8F37D
:102CB0009923D9F3940F511DBBF39150504094F0D8
:102CC00059F0882332F0660F771F881F91505040CB
:102CD000C1F79E3F510544F7880F911D9695879542
:102CE00097F908955F3FACF0983E9CF0BB2786951E
:102CF00077956795B79508F4B1609395C1F7BB0FC9
:102D000058F711F460FFE8CF6F5F7F4F8F4F9F4FF1
:102D1000E3CFB3CE0EF0A9CF0DCE689405CE92DEF0
:102D2000C8F39923D1F3C6F3DF93CF931F930F9387
:102D3000FF92C92FDD2788232AF02197660F771F7E
:102D4000881FDAF720E030E040E85FEB9FE3883946
:102D500020F0803E30F021968F7759DCEBEDF0E0EB
:102D600003C055DCE8E0F1E0E8DD8B01BE01EC01D9
:102D7000FB2E6F5771097595771F880B990B75DDC1
:102D800028E132E741E35FE395DEAF2D9801AE0124
:102D9000FF900F911F91CF91DF914ADC29CEFA016C
:102DA000DC01AA0FBB1F9B01AC01BF5728F42227EF
:102DB0003327442750781FC0B75188F4AB2F002425
:102DC000469537952795011CA395D2F3002069F00D
:102DD000220F331F441FB395DAF30DD017CC6130A7
:102DE0007105A0E88A07B94630F49B01AC0166275B
:102DF000772788279078309621F02083318342838B
:102E00005383089597FB072E16F4009407D077FD9F
:102E100009D00E94381707FC05D03EF490958195A3
:102E20009F4F0895709561957F4F0895A1E21A2EE6
:102E3000AA1BBB1BFD010DC0AA1FBB1FEE1FFF1F5E
:102E4000A217B307E407F50720F0A21BB30BE40BAE
:102E5000F50B661F771F881F991F1A9469F76095F5
:102E60007095809590959B01AC01BD01CF010895AF
:102E7000AA1BBB1B51E107C0AA1FBB1FA617B707A0
:102E800010F0A61BB70B881F991F5A95A9F78095BC
:102E90009095BC01CD010895EE0FFF1F0590F491B0
:082EA000E02D0994F894FFCF26
:102EA8000000803F0000803F0000803F0000803F1E
:102EB8000143616C6962726174696E672074686548
:102EC800204D61676E65746F6D65746572202E2E76
:102ED8002E2E2E2E2E204761696E00785F6761695D
:102EE8006E5F6F6666736574203D2000795F676169
:102EF800696E5F6F6666736574203D20007A5F6750
:102F080061696E5F6F6666736574203D200043617A
:102F18006C6962726174696E6720746865204D61BE
:102F2800676E65746F6D65746572202E2E2E2E2E59
:102F38002E2E204F666673657400506C656173654C
:102F480020726F7461746520746865206D61676EA6
:102F580065746F6D657465722032206F722033203E
:102F680074696D657320696E20636F6D706C65742C
:102F7800652063697263756C65732077697468206E
:102F8800696E206F6E65206D696E757465202E2ED2
:102F98002E2E2E2E2E2E2E2E2E2E2E2000537461E7
:102FA8007274696E67204465627567206461746134
:102FB80020696E200033003200310030002A0009F9
:102FC80000456E64204465627567202D2D20284FCA
:102FD80066667365742043616C6962726174696FB7
:102FE8006E29004F6666736574207820203D2000A6
:102FF800206D47004F6666736574207920203D2058
:10300800004F6666736574207A20203D2000476172
:10301800696E207570646174656420746F20203D4A
:103028002000206D472F626974002C0068656C6C65
:103038006F2061726475696E6F00636F6D70617384
:10304800735F63616C6962726174696F6E5F7374D8
:1030580061727400636F6D706173735F63616C6933
:1030680062726174696F6E5F66696E73680073651A
:103078007474696E675F636F6D706173735F6261AB
:1030880073655F616E676C650073746172745F73FA
:10309800656E645F646174610073746F705F7365FB
:1030A8006E645F6461746100000000007D0A500A6C
:1030B800250A2D0A400A4F0A000000004F0FEF10A2
:1030C800F50E220F070F440F6E616E00696E6600E1
:0630D8006F7666002E0079
:00000001FF
