:100000000C94F0010C9418020C9418020C94180231
:100010000C9418020C9418020C9418020C941802F8
:100020000C9418020C9418020C94B0150C946214E1
:100030000C9418020C9418020C9418020C941802D8
:100040000C9418020C9418020C9418020C941802C8
:100050000C9418020C9418020C9418020C949A0F29
:100060000C9418020C9418020C9418020C941802A8
:100070000C9418020C9418020C9418020C94180298
:100080000C9418020C9418020C9418020C94180288
:100090000C94070D0C9418020C9418020C9418027E
:1000A0000C9418020C9418020C9418028B0E900EEB
:1000B000950E9F0EE90EE90EE90EA90EB30EBD0EC8
:1000C000C70ED40EE90EDC0E060F090FFC0E000F52
:1000D0002A0F2A0F2A0F0D0F110F150F1B0F1F0FBD
:1000E0002A0F250F084AD73B3BCE016E84BCBFFDCB
:1000F000C12F3D6C74319ABD56833DDA3D00C77FF8
:1001000011BED9E4BB4C3E916BAAAABE0000008090
:100110003F05A84CCDB2D44EB93836A9020C50B91F
:10012000918688083CA6AAAA2ABE000000803F0744
:10013000634236B79BD8A71A39685618AEBAAB5582
:100140008C1D3CB7CC5763BD6DEDFD753EF6177247
:1001500031BF000000803F08000000BE9224491219
:100160003EABAAAA2ABECDCCCC4C3E00000080BE3D
:10017000ABAAAAAA3E00000000BF000000803F001A
:1001800000000000084178D3BB4387D1133D190E0E
:100190003CC3BD4282AD2B3E68EC8276BED98FE176
:1001A000A93E4C80EFFFBE01C4FF7F3F000000006E
:1001B00000070605040100080A0B0C0D09000000E9
:1001C0000200080E0000030401000B000000000004
:1001D0000000000000000000000000040802011000
:1001E0004080401020408040800802040180402070
:1001F0001002011080102040400404040404030491
:1002000005020202020403020202020606060606B4
:100210000604040202020400000000250028002B4E
:10022000002E00310000000000240027002A002DCD
:1002300000300000C18081C11201000202000040B4
:10024000412336800001010200011201000200007A
:1002500000404123368000010102000118034100E3
:1002600072006400750069006E006F0020004C0091
:100270004C004300220341007200640075006900D5
:100280006E006F0020004C0065006F006E00610082
:10029000720064006F0004030904080B00020202EC
:1002A0000100090400000102020000052400100101
:1002B00005240101010424020605240600010705A6
:1002C000810310004009040100020A000000070534
:1002D0000202400000070583024000000000000009
:1002E000000000002A2B2800000000000000000091
:1002F0000000000000000000000000002C9EB4A0E0
:10030000A1A2A434A6A7A5AE362D3738271E1F20DC
:10031000212223242526B333B62EB7B89F848586A1
:100320008788898A8B8C8D8E8F90919293949596E5
:100330009798999A9B9C9D2F3130A3AD3504050663
:100340000708090A0B0C0D0E0F10111213141516C5
:100350001718191A1B1C1DAFB1B0B5000904020013
:1003600001030000000921010100012265000705C9
:10037000840340000105010902A1010901A10085D2
:10038000010509190129031500250195037501814E
:1003900002950175058103050109300931093815F8
:1003A00081257F750895038106C0C005010906A156
:1003B000018502050719E029E7150025017501955A
:1003C00008810295017508810395067508150025B9
:1003D000650507190029658100C0250C0717541809
:1003E00011241FBECFEFDAE0DEBFCDBF13E0A0E0E7
:1003F000B1E0EEE5F9E302C005900D92A035B1073A
:10040000D9F714E0A0E5B3E001C01D92A03BB1070D
:10041000E1F713E0C0EED3E004C02297FE010E9492
:10042000951CCA3DD107C9F70E948F100C94AD1CD2
:100430000C940000DC01ED91FC910190F081E02D25
:100440000994CF936EE170E08FE793E00E940D0C6A
:1004500062E070E08FE793E00E941A0261E870E0CA
:100460008FE793E00E941A028FE793E00E94220C2C
:1004700046E050E06EE170E08FE793E00E94000CF0
:100480008FE793E00E94520B06979CF18FE793E071
:100490000E945A0BC82F8FE793E00E945A0B3C2F03
:1004A00020E0822B932B90935703809356038FE782
:1004B00093E00E945A0BC82F8FE793E00E945A0BDB
:1004C0003C2F20E0822B932B909353038093520375
:1004D0008FE793E00E945A0BC82F8FE793E00E94AA
:1004E0005A0B3C2F20E0822B932B90935503809343
:1004F0005403CF9108952F923F924F925F926F9243
:100500007F928F929F92AF92BF92CF92DF92EF92A3
:10051000FF920F931F93CF93DF93CDB7DEB7699709
:100520000FB6F894DEBF0FBECDBF988F8F8B8D7F37
:10053000019709F0E7C16BE171E081E594E00E9469
:10054000FB106EE170E08FE793E00E940D0C60E01D
:1005500070E08FE793E00E941A0261E770E08FE796
:1005600093E00E941A028FE793E00E94220C0E94FF
:10057000210260915603709157030091540310912A
:100580005503209052033090530391E0083C11052D
:100590000CF090E081E0683C71050CF080E0892B64
:1005A00031F728EC2216310414F3C0900C01D090DE
:1005B0000D01E0900E01F0900F01882777FD8095E6
:1005C000982F0E949019A70196010E94A91A4B0129
:1005D0005C0160936403709365038093660390935A
:1005E0006703B801882777FD8095982F0E9490199E
:1005F000A70196010E94A91A2B013C016093600398
:10060000709361038093620390936303B101882721
:1006100077FD8095982F0E949019A70196010E945E
:10062000A91A6B017C0160935C0370935D03809356
:100630005E0390935F03A501940160E070E081E99F
:1006400094E40E94F5186093080170930901809367
:100650000A0190930B01A301920160E070E081E92F
:1006600094E40E94F518609304017093050180934F
:10067000060190930701A701960160E070E087E80A
:1006800094E40E94F5186093000170930101809337
:100690000201909303016EE170E08FE793E00E9406
:1006A0000D0C60E070E08FE793E00E941A0262E7B1
:1006B00070E08FE793E00E941A028FE793E00E94B8
:1006C000220C0E9421026091560370915703009101
:1006D000540310915503209052033090530391E03E
:1006E00009338FEF18070CF490E081E06933EFEFE6
:1006F0007E070CF480E0892B21F7F9E32F16FFEF3A
:100700003F06FCF680900C0190900D01A0900E0128
:10071000B0900F01882777FD8095982F0E9490193F
:10072000A50194010E94A91A6B017C0160936403E6
:10073000709365038093660390936703B8018827DD
:1007400077FD8095982F0E949019A50194010E9431
:10075000A91A2B013C01609360037093610380939D
:10076000620390936303B101882777FD8095982FEA
:100770000E949019A50194010E94A91A4B015C01E5
:1007800060935C0370935D0380935E0390935F03BB
:1007900020E030E0A901C701B6010E949E1AA7011E
:1007A000960118160CF0505860E070E081E994E46E
:1007B0000E94F518209108013091090140910A0129
:1007C00050910B010E94621820E030E040E05FE3AE
:1007D0000E94A91A609308017093090180930A018D
:1007E00090930B0120E030E0A901C301B2010E9407
:1007F0009E1AA301920118160CF0505860E070E0A8
:1008000081E994E40E94F5182091040130910501DA
:1008100040910601509107010E94621820E030E0EB
:1008200040E05FE30E94A91A609304017093050100
:10083000809306019093070120E030E0A901C501F3
:10084000B4010E949E1AA501940118160CF050588C
:1008500060E070E087E894E40E94F51820910001C0
:100860003091010140910201509103010E946218F0
:1008700020E030E040E05FE30E94A91A60930001AD
:1008800070930101809302019093030165E471E08C
:1008900081E594E00E94DE10409108015091090129
:1008A00060910A0170910B0122E030E081E594E053
:1008B0000E94A51266E571E081E594E00E94DE10D9
:1008C000409104015091050160910601709107016A
:1008D00022E030E081E594E00E94A51267E671E035
:1008E00081E594E00E94DE104091000150910101E9
:1008F000609102017091030122E030E081E594E013
:100900000E94A5126EE170E08FE793E00E940D0C4B
:1009100060E070E08FE793E00E941A0268E770E001
:100920008FE793E00E941A028FE793E00E94220C67
:100930008F89988D0297029708F0B6C268E771E038
:1009400081E594E00E94FB1064EA71E081E594E0A7
:100950000E94FB101AE00E9421021150E1F78091E1
:10096000500390915103019709F05EC067E072E077
:1009700081E594E00E94FB1068EE73E080E090E077
:100980000E9413106FE172E081E594E00E94FB1079
:1009900068EE73E080E090E00E94131061E272E084
:1009A00081E594E00E94FB1068EE73E080E090E047
:1009B0000E94131063E272E081E594E00E94FB1054
:1009C00068EE73E080E090E00E94131065E272E050
:1009D00081E594E00E94FB1081E594E00E94E7101D
:1009E0001AE067E272E081E594E00E94DE101150A7
:1009F000C1F767E272E081E594E00E94FB106FE2CC
:100A000072E081E594E00E94FB101AE067E272E078
:100A100081E594E00E94DE101150C1F767E272E0B8
:100A200081E594E00E94FB100E94E40F6B017C01C1
:100A30001B8A1C8A2AE72D8B85E48E8B1F86188AD9
:100A4000EAE7E98BF5E4FA8B212C312C2D878E8790
:100A500019861A86EB87F5ECFC871D821E822F8390
:100A600085EC888719821A82EB83FC830E94E40F4D
:100A70006C197D098E099F096133754781059105C0
:100A800008F025C10E94210280900C0190900D0178
:100A9000A0900E01B0900F018091560390915703E2
:100AA000BC01882777FD8095982F0E949019A50199
:100AB00094010E94A91A20910801309109014091E6
:100AC0000A0150910B010E94A91A2B013C0160936D
:100AD000640370936503809366039093670380912A
:100AE000540390915503BC01882777FD8095982F7A
:100AF0000E949019A50194010E94A91A2091040155
:100B00003091050140910601509107010E94A91AF8
:100B10006093600370936103809362039093630317
:100B20008091520390915303BC01882777FD8095F3
:100B3000982F0E949019A50194010E94A91A209152
:100B400000013091010140910201509103010E9486
:100B5000A91A60935C0370935D0380935E03909386
:100B60005F038091500390915103019781F522E03A
:100B700030E0B301A20181E594E00E94A31269E292
:100B800072E081E594E00E94DE1040916003509194
:100B90006103609162037091630322E030E081E5BC
:100BA00094E00E94A31269E272E081E594E00E9461
:100BB000DE1040915C0350915D0360915E03709183
:100BC0005F0322E030E081E594E00E94A5120091ED
:100BD00064031091650320916603298F8091670358
:100BE0008F8B9801498D582F69817A818B819C81E7
:100BF0000E949E1A181634F009831A83E98DEB833C
:100C0000FF89FC838090600390906103A090620351
:100C1000B09063039401A5016D817E818F819885D9
:100C20000E949E1A181624F08D829E82AF82B8868A
:100C300040905C0350905D0360905E0370905F0392
:100C40009201A30169857A858B859C850E949E1AF5
:100C5000181624F049865A866B867C869801498D41
:100C60005F89B1018D859E850E94EE1887FF05C0C2
:100C700081012D85298F8E858F8B9401A5016F852C
:100C8000788989899A890E94EE1887FF04C08F8429
:100C90009888A988BA889201A3016B897C898D897B
:100CA0009E890E94EE1887FF04C04B885C886D887F
:100CB0007E884B8A5C8A6D8A7E8A8F86988AA98A0A
:100CC000BA8A1801E98DED87FF89FE87CFCE809122
:100CD000500390915103019741F581E594E00E9402
:100CE000E7101AE067E272E081E594E00E94DE100E
:100CF0001150C1F767E272E081E594E00E94FB10B9
:100D00006BE272E081E594E00E94FB101AE067E27A
:100D100072E081E594E00E94DE101150C1F767E2B5
:100D200072E081E594E00E94FB1091014D855E85A3
:100D300069817A818B819C810E94611820E030E07A
:100D400040E05FE30E94A91A29813A814B815C81CE
:100D50000E94611860937003709371038093720313
:100D6000909373032F85388949895A896D817E81D3
:100D70008F8198850E94611820E030E040E05FE3B9
:100D80000E94A91A2D813E814F8158850E946118C9
:100D900060936C0370936D0380936E0390936F0365
:100DA0002B893C894D895E8969857A858B859C85EF
:100DB0000E94611820E030E040E05FE30E94A91A41
:100DC00029853A854B855C850E946118609368038C
:100DD0007093690380936A0390936B036DE472E0F0
:100DE00081E594E00E94DE10409170035091710300
:100DF000609172037091730322E030E081E594E02A
:100E00000E94A3126AE572E081E594E00E94FB1063
:100E10006EE572E081E594E00E94DE1040916C0383
:100E200050916D0360916E0370916F0322E030E08A
:100E300081E594E00E94A3126AE572E081E594E006
:100E40000E94FB106BE672E081E594E00E94DE10E8
:100E5000409168035091690360916A0370916B033C
:100E600022E030E081E594E00E94A3126AE572E09E
:100E700081E594E069960FB6F894DEBF0FBECDBF52
:100E8000DF91CF911F910F91FF90EF90DF90CF9066
:100E9000BF90AF909F908F907F906F905F904F909A
:100EA0003F902F900C94FB1069960FB6F894DEBF1C
:100EB0000FBECDBFDF91CF911F910F91FF90EF90AB
:100EC000DF90CF90BF90AF909F908F907F906F906A
:100ED0005F904F903F902F900895CF92DF92EF92C6
:100EE000FF920E942102C0900C01D0900D01E09071
:100EF0000E01F0900F0160915603709157038827FF
:100F000077FD8095982F0E949019A70196010E9465
:100F1000A91A209108013091090140910A015091CC
:100F20000B010E94A91A2091700330917103409126
:100F30007203509173030E9462186093640370936C
:100F400065038093660390936703609154037091E7
:100F50005503882777FD8095982F0E949019A70147
:100F600096010E94A91A2091040130910501409137
:100F70000601509107010E94A91A20916C0330913B
:100F80006D0340916E0350916F030E94621860934D
:100F90006003709361038093620390936303609195
:100FA000520370915303882777FD8095982F0E94F4
:100FB0009019A70196010E94A91A20910001309171
:100FC000010140910201509103010E94A91A209150
:100FD00068033091690340916A0350916B030E944A
:100FE000621860935C0370935D0380935E0390933B
:100FF0005F03FF90EF90DF90CF900895CF92DF9244
:10100000EF92FF920E946D07C0906003D090610341
:10101000E0906203F090630320E030E0A901C70193
:10102000B6010E949E1A1816DCF4A7019601609181
:1010300064037091650380916603909167030E9439
:10104000F5180E94C61823E333E345E652E40E94F4
:10105000A91A9B01AC0160E070E084EB92E423C02C
:1010600020E030E0A901C701B6010E94EE1887FF19
:1010700025C0A7019601609164037091650380917A
:101080006603909167030E94F5180E94C61823E337
:1010900033E345E652E40E94A91A9B01AC0160E0EB
:1010A00070E087E893E40E9461186093580370939E
:1010B000590380935A0390935B032DC020E030E0E6
:1010C000A90160916403709165038091660390911A
:1010D00067030E94EE1887FF16C020E030E0A901E8
:1010E000C701B6010E94EE1881110DC080E090E0AA
:1010F000A4E3B3E48093580390935903A0935A0355
:10110000B0935B0308C010925803109259031092D9
:101110005A0310925B03FF90EF90DF90CF900895F9
:101120001F93CF93DF93EC016EE170E08FE793E0C4
:101130000E940D0C61E070E08FE793E00E941A02BC
:10114000209771F488E491EEAAE3BFE380930C0149
:1011500090930D01A0930E01B0930F0110E075C0A4
:10116000C130D10571F48FE195E8ABE6BFE3809320
:101170000C0190930D01A0930E01B0930F0110E2AA
:1011800064C0C230D10571F486EF98E2ACE9BFE3E8
:1011900080930C0190930D01A0930E01B0930F0169
:1011A00010E453C0C330D10571F48CE59FE8A2EC84
:1011B000BFE380930C0190930D01A0930E01B093B7
:1011C0000F0110E642C0C430D10571F48EEA97E4F5
:1011D000A1E1B0E480930C0190930D01A0930E0166
:1011E000B0930F0110E831C0C530D10571F48AE029
:1011F00097EDA3E2B0E480930C0190930D01A093CE
:101200000E01B0930F0110EA20C0C630D10571F471
:1012100085E89BEEA1E4B0E480930C0190930D016E
:10122000A0930E01B0930F0110EC0FC0279769F443
:1012300083E393E3ABE8B0E480930C0190930D015A
:10124000A0930E01B0930F0110EE612F8FE793E092
:101250000E94AA0B63E070E08FE793E00E941A02FD
:101260008FE793E00E94220C68E772E081E594E04A
:101270000E94DE1040910C0150910D0160910E0111
:1012800070910F0122E030E081E594E00E94A3120A
:101290006CE872E081E594E0DF91CF911F910C94AE
:1012A000FB1060E875E281E594E00E9406178FE785
:1012B00093E00E94E90B61E08DE00C942B0FDF922C
:1012C000EF92FF920F931F93CF93DF937C01D62E63
:1012D00000E010E0C0E0D0E00E151F0534F58D2DC4
:1012E0000E94340EBC01882777FD8095982F0E94BC
:1012F00090199B01AC0166E676E38DE395E40E94CC
:10130000F51821EB30E54BE95FE30E940C1B0E94CE
:101310005D196115710531F0683E43E0740714F4FE
:10132000C60FD71F0F5F1F4FD7CFCE01B7010E9447
:101330005D1CCB016135710514F080E590E0DF9113
:10134000CF911F910F91FF90EF90DF90089586E667
:1013500096E6A9E9B2E48093700390937103A09399
:101360007203B09373038FE195E0AFE3B3E480932E
:101370006C0390936D03A0936E03B0936F038CE5A1
:101380009FECA0EBB3E48093680390936903A09370
:101390006A03B0936B038CEE91E5A8E7BFE38093FB
:1013A000080190930901A0930A01B0930B0184EA0C
:1013B00090E7ADE7BFE38093040190930501A0930C
:1013C0000601B09307018FE195E8ABE6BFE3809398
:1013D000000190930101A0930201B093030182E008
:1013E00090E00E949008109251031092500383E005
:1013F00090E00C947B020E94FE076091580370916C
:10140000590380915A0390915B030E945D19709378
:101410007D0360937C0308950E94FE0760917C0326
:1014200070917D03882777FD8095982F0E949019F1
:101430009B01AC01609158037091590380915A034C
:1014400090915B030E9461180E945D1977FF02C0B2
:1014500068597E4F70937B0360937A0362E170E07A
:1014600082E390E00E945F09909379038093780370
:1014700063E170E082E390E00E945F09909377035C
:101480008093760364E170E082E390E00E945F095C
:101490009093750380937403089560917A0370911B
:1014A0007B034AE050E081E594E00E94B01164E9DA
:1014B00072E081E594E00E94DE1060917803709103
:1014C00079034AE050E081E594E00E94B01164E9BC
:1014D00072E081E594E00E94DE10609176037091E5
:1014E00077034AE050E081E594E00E94B01164E99E
:1014F00072E081E594E00E94DE10609174037091C7
:1015000075034AE050E081E594E00E94B01181E566
:1015100094E00C94E7100F931F930E94E40F8B014B
:101520009C0164EF71E080E090E0601B710B820B26
:10153000930B0E9490192EE233EE4DE45BE30E9480
:10154000A91A0E94F21820E030E04EEF52E40E9407
:10155000A91A20E030E040E053E40E9462180E94A3
:101560005D198DE01F910F910C94650ECF92DF9263
:10157000EF92FF920F931F93CF93DF938C01C0E004
:10158000D0E06B01EE24D7FCE094FE2CC017D1070D
:1015900094F461E08DE00E94640FC701B6010E94DF
:1015A000131060E08DE00E94640FC701B6010E9435
:1015B00013102196EBCFDF91CF911F910F91FF90E8
:1015C000EF90DF90CF90089561E08DE00C94640F70
:1015D00060E08DE00C94640F81E594E00E94331686
:1015E000823389F1A4F4803329F1813309F04FC0AB
:1015F00064EA72E081E594E00E94FB100E94E40A34
:101600000E94A7090E94E80A6EEB72E026C08333AD
:1016100049F18433E1F510927E0363E073E081E5E4
:1016200094E00E94FB1062E370E085E090E00E948D
:10163000B60A2DC064E670E081E090E00E94B60A30
:1016400066E972E00AC064E670E083E090E00E9420
:10165000B60A0E94FB0968ED72E081E594E00E9401
:10166000FB1015C063EF72E081E594E00E94FB106F
:1016700062E370E085E090E00E94B60A62E070E00C
:1016800080E090E00E94131081E080937E038091BF
:101690007E03882331F00E948B0A0E940C0A0C946E
:1016A0004D0A08958091AF0390E02091B003821B12
:1016B000910908952091B0038091AF03281750F449
:1016C000E22FF0E0EF54FC4F808190E02F5F2093F9
:1016D000B00308958FEF9FEF0895E091B0038091DC
:1016E000AF03E81730F4F0E0EF54FC4F808190E056
:1016F00008958FEF9FEF08950895CF92DF92EF92B4
:10170000FF920F931F93CF93DF937C01CB018A014C
:1017100020918B03222389F0EB016B01C40ED51EAF
:10172000CC15DD0569F06991D701ED91FC9101902F
:10173000F081E02DC7010995F3CF642F0E94DE0CE4
:10174000C801DF91CF911F910F91FF90EF90DF9033
:10175000CF900895CF93DF931F92CDB7DEB7698303
:1017600020918B032223D1F020918C03203240F072
:1017700021E030E0FC013383228380E090E015C05B
:1017800080918D03E82FF0E0E257FC4F9981908320
:101790008F5F80938D0380938C0305C061E0CE0141
:1017A00001960E94DE0C81E090E00F90DF91CF91D6
:1017B0000895FC011382128248EE53E060E070E06D
:1017C000448355836683778386E193E091838083A6
:1017D00008951092B0031092AF0310928D031092EF
:1017E0008C030C94290C862F413208F040E261EB07
:1017F00073E00E94470C1092B0038093AF030895EA
:1018000021E00C94F30B81E080938B036093AE0393
:1018100010928D0310928C0308950C94030C0F9377
:10182000062F21E040918C036EE873E08091AE03B7
:101830000E948B0C10928D0310928C0310928B03DC
:101840000F91089561E00C940F0C8FE793E00C94D6
:10185000D90B10923E0481E080933C0410923B042B
:1018600061E082E00E94640F61E083E00E94640F07
:10187000E9EBF0E080818E7F808380818D7F8083A3
:1018800088E48093B80085E48093BC0008954132D9
:1018900008F03FC090913E049111FCCF91E09093ED
:1018A0003E0420933C042FEF2093D10310921604A2
:1018B000240F2093150490933D0490913D04880FCC
:1018C000892B80933D0480913B04813041F4109238
:1018D0003B0480913D048093BB0085EC01C085EE04
:1018E0008093BC0080913E048130E1F38091160426
:1018F000841710F44091160427E134E0FB01D9016C
:101900008A2F821B841718F48D918193F9CF842F2D
:10191000089580E008950F93413208F046C09091F9
:101920003E049111FCCF92E090933E0400933C045E
:101930009FEF9093D1031092160440931504FB017E
:1019400067E174E0DB019A2F961B941718F49191CC
:101950009D93F9CF10923D0490913D04880F892BFF
:1019600080933D0480913B04813041F410923B040C
:1019700080913D048093BB0085EC01C085EE80938F
:10198000BC00222321F080913E048230E1F380915B
:10199000D1038F3F61F08091D103803251F080916B
:1019A000D103803341F483E007C081E005C080E0CB
:1019B00003C082E001C084E00F910895613298F481
:1019C00020913E04243089F46093F303FC0185EFF9
:1019D00093E0DC012A2F281B261718F421912D9360
:1019E000F9CF80E0089581E0089582E0089585EDC3
:1019F0008093BC008091BC0084FDFCCF10923E041B
:101A0000089585EC8093BC0010923E0408951F92C7
:101A10000F920FB60F9211242F933F934F935F9322
:101A20006F937F938F939F93AF93BF93EF93FF93A6
:101A30008091B900887F803609F49CC068F58832AF
:101A400009F45BC090F4803109F454C038F4882361
:101A500009F4F5C0883009F44DC0F5C0883109F4A7
:101A60004CC0803209F45DC0EEC0803409F468C017
:101A700048F4803309F455C0883309F0E4C08093FA
:101A8000D103A8C0803509F44FC0883509F45DC082
:101A9000883409F0D8C0D5C0883909F4C6C0A8F484
:101AA000883709F467C038F4883609F463C0803792
:101AB00009F460C0C8C0883809F4B7C0803909F497
:101AC0005FC0803809F0BFC05BC0803B09F485C0AF
:101AD00038F4803A09F466C0883A09F47EC0B3C08D
:101AE000803C09F4A6C0883C09F4A3C0883B09F4F3
:101AF00089C0A9C080913D0410C0909116048091C6
:101B00001504981770F5E091160481E08E0F80930C
:101B10001604F0E0E95EFB4F80818093BB0085EC0A
:101B200085C08093D1038DC0E091160481E08E0FB3
:101B3000809316048091BB00F0E0E95EFB4F808348
:101B400090911604809115046DC0E091160481E017
:101B50008E0F809316048091BB00F0E0E95EFB4F8E
:101B6000808380913C0481116CC081E080933B04B0
:101B700084EA60C083E080933E041092D203CFCF0A
:101B80008091D203803208F050C0E091D20381E00E
:101B90008E0F8093D2038091BB00F0E0ED52FC4F9A
:101BA0008083BDCF8091D203803230F4E091D203A4
:101BB000F0E0ED52FC4F10820E94F70C6091D203CE
:101BC00070E0E0913704F091380483ED93E00995DB
:101BD0001092D2030E94010D36C084E080933E042F
:101BE0001092F4031092F303E0913904F0913A0457
:101BF00009958091F303811105C081E08093F3037F
:101C00001092F503E091F40381E08E0F8093F403CA
:101C1000F0E0EB50FC4F80818093BB009091F40387
:101C20008091F303981708F47ACF85E88093BC007D
:101C30000AC085EC8093BC0010923E0404C0109250
:101C4000D1030E94F70CFF91EF91BF91AF919F914B
:101C50008F917F916F915F914F913F912F910F9055
:101C60000FBE0F901F901895823108F08251E82F17
:101C7000F0E0EF54FE4FE49180917B00E3FB2227DC
:101C800020F930E095E0220F331F9A95E1F78F7D20
:101C9000822B80937B00E7708091100120E4829F6B
:101CA000C0011124E82BE0937C0080917A008064CD
:101CB00080937A0080917A0086FDFCCF8091780035
:101CC0002091790090E0922B08951F93CF93DF939A
:101CD000182FEB0161E00E942B0F209711F460E0B8
:101CE00004C0CF3FD10539F461E0812FDF91CF915E
:101CF0001F910C94640FE12FF0E0E354FE4F4491E8
:101D000050E0FA013197EE30F10508F062C0EA5A6E
:101D1000FF4F0C94931C84B5806884BDC7BD5EC022
:101D200084B5806284BDC8BD59C080918000806840
:101D300080938000D0938900C09388004FC0809129
:101D40008000806280938000D0938B00C0938A00D3
:101D500045C080919000806880939000D093990056
:101D6000C09398003BC08091900080628093900067
:101D7000D0939B00C0939A0031C0809190008860FE
:101D800080939000D0939D00C0939C0027C08091C9
:101D9000C00080688093C0008091C0008F7B8093DA
:101DA000C000C093CF001AC08091C00080628093B1
:101DB000C000C093D00012C08091C20088608093A0
:101DC000C2008091C2008B7F8093C200C093D2007A
:101DD00005C0C038D1050CF087CF81CFDF91CF91FE
:101DE0001F91089590E0FC013197EE30F10590F5D8
:101DF000EC59FF4F0C94931C809180008F7703C0A7
:101E0000809180008F7D80938000089584B58F77C6
:101E100002C084B58F7D84BD0895809190008F7736
:101E200007C0809190008F7D03C080919000877FD4
:101E30008093900008958091C0008F7703C08091B7
:101E4000C0008F7D8093C00008958091C200877F7D
:101E50008093C2000895CF93DF9390E0FC01E55298
:101E6000FE4F2491FC01E750FE4F8491882349F1F5
:101E700090E0880F991FFC01EB5DFD4FA591B49197
:101E8000895E9D4FFC01C591D4919FB7611108C037
:101E9000F8948C91209582238C93888182230AC0A8
:101EA000623051F4F8948C91322F309583238C93C7
:101EB0008881822B888304C0F8948C91822B8C9328
:101EC0009FBFDF91CF9108950F931F93CF93DF931F
:101ED0001F92CDB7DEB7282F30E0F901E354FE4F53
:101EE0008491F901E552FE4F1491F901E750FE4F3C
:101EF00004910023C9F0882321F069830E94F20E27
:101F00006981E02FF0E0EE0FFF1FE95EFD4FA59124
:101F1000B4919FB7F8948C91611103C010958123FF
:101F200001C0812B8C939FBF0F90DF91CF911F91A8
:101F30000F9108951F920F920FB60F9211242F93B5
:101F40003F938F939F93AF93BF9380914004909161
:101F50004104A0914204B091430430913F0423E036
:101F6000230F2D3720F40196A11DB11D05C026E8D1
:101F7000230F0296A11DB11D20933F0480934004BE
:101F800090934104A0934204B0934304809144048D
:101F900090914504A0914604B09147040196A11D7B
:101FA000B11D8093440490934504A0934604B093DC
:101FB0004704BF91AF919F918F913F912F910F90C7
:101FC0000FBE0F901F9018952FB7F89460914004A2
:101FD0007091410480914204909143042FBF089571
:101FE0003FB7F8948091440490914504A091460431
:101FF000B091470426B5A89B05C02F3F19F0019664
:10200000A11DB11D3FBF6627782F892F9A2F620F20
:10201000711D811D911D42E0660F771F881F991F5A
:102020004A95D1F70895CF92DF92EF92FF92CF9326
:10203000DF936B017C010E94F00FEB01C114D1040E
:10204000E104F10479F00E94F00F6C1B7D0B683EF7
:102050007340A0F381E0C81AD108E108F108C85123
:10206000DC4FECCFDF91CF91FF90EF90DF90CF90DE
:102070000895789484B5826084BD84B5816084BD00
:1020800085B5826085BD85B5816085BDEEE6F0E0F1
:10209000808181608083E1E8F0E01082808182604D
:1020A0008083808181608083E0E8F0E080818160CE
:1020B0008083E1E9F0E080818260808380818160BB
:1020C0008083E0E9F0E0808181608083E1ECF0E0F2
:1020D0008081846080838081826080838081816050
:1020E0008083E3ECF0E0808181608083E0ECF0E0CD
:1020F000808182608083E2ECF0E080818160808377
:10210000EAE7F0E080818460808380818260808360
:1021100080818160808380818068808308950E94AF
:10212000391088E494E00E9492150E945109C0E0A1
:10213000D0E00E94EC0A2097E1F30E940000F9CF62
:10214000CF92DF92EF92FF920F931F93CF93DF9383
:102150006C017A01EB01E60EF71E00E010E0CE15EF
:10216000DF0561F06991D601ED91FC910190F0815C
:10217000E02DC6010995080F191FF1CFC801DF91A5
:10218000CF911F910F91FF90EF90DF90CF90089526
:102190006115710581F0DB010D900020E9F7AD01BB
:1021A00041505109461B570BDC01ED91FC91028017
:1021B000F381E02D099480E090E008950C94C8101C
:1021C000DC01ED91FC910190F081E02D09940F93D9
:1021D0001F93CF93DF93EC016DE00E94E0108C0120
:1021E0006AE0CE010E94E010800F911FDF91CF9135
:1021F0001F910F9108950F931F93CF93DF93EC01DD
:102200000E94C8108C01CE010E94E710800F911F20
:10221000DF91CF911F910F9108958F929F92AF926E
:10222000BF92CF92DF92EF92FF920F931F93CF93C3
:10223000DF93CDB7DEB7A1970FB6F894DEBF0FBE20
:10224000CDBF7C01C42EE52FCB01D22E19A221E0F7
:102250002D1510F02AE0D22E8E010F5D1F4F8D2C10
:10226000912CA12CB12C6C2D7E2FA50194010E94E4
:10227000711C8C2DD29E80191124015011098A30B5
:1022800014F4805D01C0895CF8018083211531055B
:102290004105510521F0C22EE32FCA01E4CFB80158
:1022A000C7010E94C810A1960FB6F894DEBF0FBEFA
:1022B000CDBFDF91CF911F910F91FF90EF90DF90F5
:1022C000CF90BF90AF909F908F900895CF92DF9264
:1022D000EF92FF920F931F93CF93DF93EC016A016C
:1022E0007B012115310579F4E881F9810190F081B4
:1022F000E02D642FDF91CF911F910F91FF90EF9010
:10230000DF90CF9009942A303105E9F477FF1AC0A5
:102310006DE20E94E0108C0144275527BA014C1948
:102320005D096E097F092AE0CE010E940D11800F20
:10233000911FDF91CF911F910F91FF90EF90DF9050
:10234000CF9008952AE0B701A601CE01DF91CF9189
:102350001F910F91FF90EF90DF90CF900C940D1193
:102360009A01AB01662757FD6095762F0C94661194
:102370004F925F926F927F928F929F92AF92BF9295
:10238000CF92DF92EF92FF920F931F93CF93DF9341
:10239000EC016A017B01B22E9A01AB01C701B601C3
:1023A0000E945B1B882319F062E273E027C02601BC
:1023B0003701E89477F82FEF3FEF4FE75FE7C3016E
:1023C000B2010E945B1B81110DC02FEF3FEF4FE761
:1023D0005FE7C301B2010E94EE1818161CF466E212
:1023E00073E00CC02FEF3FEF4FE75FE4C701B6018A
:1023F0000E949E1A1816ACF46AE273E0CE01DF91D7
:10240000CF911F910F91FF90EF90DF90CF90BF90F1
:10241000AF909F908F907F906F905F904F900C94B3
:10242000C8102FEF3FEF4FE75FECC701B6010E94E6
:10243000EE1887FDE1CF20E030E0A901C701B60129
:102440000E94EE1887FF0AC06DE2CE010E94E010E4
:102450008C01F7FAF094F7F8F09402C000E010E075
:10246000A12C60E070E080E09FE3AB1441F020E03D
:1024700030E040E251E40E94F518A394F6CF9B01AE
:10248000AC01C701B6010E9462186B017C010E9479
:1024900062192B013C010E948E199B01AC01C701FE
:1024A000B6010E9461186B017C012AE0B301A20110
:1024B000CE010E940D11080F191FBB2039F06EE2EA
:1024C00073E0CE010E94C810080F191F7B2C7720E3
:1024D00041F120E030E040E251E4C701B6010E9442
:1024E000A91A6B017C010E945D194B01AA2497FC7B
:1024F000A094BA2C2AE030E0B501A401CE010E94DC
:102500006611080F191FC501B4010E9490199B01A3
:10251000AC01C701B6010E9461186B017C017A947D
:10252000D6CFC801DF91CF911F910F91FF90EF900F
:10253000DF90CF90BF90AF909F908F907F906F90E3
:102540005F904F9008950C94B8110F931F93CF9301
:10255000DF93EC010E94B8118C01CE010E94E710BC
:10256000800F911FDF91CF911F910F9108956150BE
:1025700030F02091F100FC0120830196F8CF2898DB
:1025800084E680934F0408952FB7FC012083F894CC
:1025900067706093E9000895CF93DF931F92CDB7E2
:1025A000DEB7682FCE0101960E94C4128091F2001E
:1025B00099819FBF0F90DF91CF910895FF920F9364
:1025C0001F93CF93DF9300D0CDB7DEB7F62E8A01ED
:1025D00090914E04992311F057FF03C08FEF9FEFA6
:1025E0002BC0682FCE0101967A830E94C41280917D
:1025F000F20090E0A8017A81801791070CF4AC01F9
:10260000EF2DF72FF40E84E6FE1639F0289880930C
:102610004F049091F1009193F7CF4115510521F0AE
:102620008091F200882321F089818FBFCA0104C004
:102630008BE68093E800F8CF0F900F90DF91CF9159
:102640001F910F91FF900895CF93DF931F92CDB705
:10265000DEB741E050E0BE016F5F7F4F0E94DE12A7
:10266000019719F4898190E002C08FEF9FEF0F90DE
:10267000DF91CF910895CF93DF931F92CDB7DEB74F
:10268000682FCE0101960E94C4129091E800892F14
:10269000807295FF04C09091F20080E4891B9981BB
:1026A0009FBF0F90DF91CF9108954F925F926F92ED
:1026B0007F928F929F92AF92BF92CF92DF92EF92D2
:1026C000FF920F931F93CF93DF931F92CDB7DEB787
:1026D000582E7B01A42E952E80914E04882369F0FC
:1026E000042F152F8AEFB82E852D8072782E9AE34D
:1026F000892E852D8074682E11C08FEF9FEF53C0F7
:10270000852D0E943B13482E81110CC0BA94A9F369
:1027100061E070E080E090E00E9413100115110567
:1027200079F737C0282F30E0021713070CF4402E3A
:10273000C42CD12C0C191D09652DCE0101960E94C7
:10274000C412772039F04A948FEF4816B1F01092F6
:10275000F100F9CFF701842D57FE07C0815058F0E2
:1027600094919093F1003196F9CF815020F091919E
:102770009093F100FACFEC0CFD1C8091E80085FFEE
:102780000FC00115110511F461100AC089818FBFB6
:10279000C5CF5D9884E6809350048A2D992D03C09F
:1027A0008092E800F3CF0F90DF91CF911F910F91AE
:1027B000FF90EF90DF90CF90BF90AF909F908F9061
:1027C0007F906F905F904F9008951092E900109263
:1027D0004D0410924C0490934B0480934A04089546
:1027E000CF93DF93FB0120E030E0DEEF24173507C5
:1027F000A1F187FF02C0C49101C0C081A0914C0427
:10280000B0914D0460914A0470914B04A617B7072C
:10281000B4F49091E8009570E1F39091E80092FD96
:102820001EC0C093F10060914C0470914D046F5F25
:102830007F4F6F737727672B11F4D093E800609177
:102840004C0470914D046F5F7F4F70934D04609303
:102850004C042F5F3F4F3196C9CFC90102C08FEFA3
:102860009FEFDF91CF9108951F93CF93DF931F9236
:10287000CDB7DEB7162F2091E80022FFFCCF612FE5
:1028800079830E94B7128BEF8093E800812F7981C2
:10289000972F0F90DF91CF911F910895CF93DF93E2
:1028A0001F92CDB7DEB71982CE0101960E94A41601
:1028B000CE0101960E943C17898190E00F90DF9134
:1028C000CF9108951F920F920FB60F921124EF929D
:1028D000FF920F931F932F933F934F935F936F93A9
:1028E0007F938F939F93AF93BF93EF93FF93CF9378
:1028F000DF93CDB7DEB76297DEBFCDBF1092E900A0
:102900008091E80083FFE7C068E0CE010A960E944C
:10291000B71282EF8093E8009A8597FF05C08091F7
:10292000E80080FFFCCF03C08EEF8093E800892F82
:10293000807609F0B5C08B85811105C01092F10039
:102940001092F100C1C0282F2D7F213009F4BCC0A6
:10295000853049F48091E80080FFFCCF8C85806849
:102960008093E300B1C0863009F072C02D85E888FD
:10297000F988223071F580E090E02A8B0E94E513FF
:102980000E944E1499E08E010F5F1F4FF801392FFE
:1029900011923A95E9F799832A892A8391E09E83D7
:1029A00090E898879AEF998720914C0430914D04D4
:1029B000275F3F4F3C832B838D83C7010E94E51324
:1029C00049E050E0B80180E00E94F0130E944E14EC
:1029D0007BC0C7012A8B0E94E5132A89223241F469
:1029E00082E290E00E944717892B09F06DC070C009
:1029F000213069F488899989089711F42093490452
:102A000080914904882389F068E372E016C023307E
:102A100009F05EC08C85882359F0823061F08130E6
:102A200009F056C06CE572E008C06AE472E005C0C7
:102A300066E972E002C064E772E06115710509F4AD
:102A400047C0FB01449150E080E80E94F0133CC075
:102A5000873009F43DC0883021F481E08093F10093
:102A600033C0893089F5937099F5E4E3F2E081E0B1
:102A700021E096E38093E9002093EB0034913093BA
:102A8000EC009093ED008F5F3196853099F78EE7DB
:102A90008093EA001092EA008C8580934E0414C063
:102AA000888999890E94E5138E85811105C0CE0120
:102AB0000A960E94AF1606C0823051F4CE010A96E3
:102AC0000E946F17882321F08EEF8093E80003C0E7
:102AD00081E28093EB0062960FB6F894DEBF0FBEE2
:102AE000CDBFDF91CF91FF91EF91BF91AF919F91BA
:102AF0008F917F916F915F914F913F912F911F9196
:102B00000F91FF90EF900F900FBE0F901F901895B0
:102B10008093E9008091F200882319F08AE3809382
:102B2000E800089510924E0481E08093D70080EA77
:102B30008093D80082E189BD09B400FEFDCF61E039
:102B400070E080E090E00E94131080E98093D8004C
:102B50008CE08093E2001092E000559A209A08954C
:102B60001F920F920FB60F9211242F933F934F9302
:102B70005F936F937F938F939F93AF93BF93EF93E5
:102B8000FF938091E1001092E10083FF0FC010924B
:102B9000E90091E09093EB001092EC0092E39093A7
:102BA000ED0010924E0498E09093F00082FF26C052
:102BB00083E00E94881582E00E94CC12882321F0D5
:102BC00081E594E00E94561680915004882339F0E4
:102BD00080915004815080935004882369F0809143
:102BE0004F04882359F080914F04815080934F0403
:102BF000811104C0289A02C05D9AF1CFFF91EF9134
:102C0000BF91AF919F918F917F916F915F914F9104
:102C10003F912F910F900FBE0F901F9018958091AC
:102C20009F049091A0042091A1043091A204821BE2
:102C3000930B8F739927089520919F043091A004DE
:102C40008091A1049091A2042817390749F0E091DE
:102C5000A104F091A204E15AFB4F808190E0089515
:102C60008FEF9FEF089520919F043091A0048091F1
:102C7000A1049091A20428173907A9F0E091A104BA
:102C8000F091A204E15AFB4F80812091A104309180
:102C9000A2042F5F3F4F2F7333273093A20420935A
:102CA000A10490E008958FEF9FEF0895CF93DF93F5
:102CB000C0919F04D091A0042196CF73DD2780910D
:102CC000A1049091A204C817D90799F082E00E944C
:102CD00024138F3F2FEF920761F0E0919F04F09152
:102CE000A004E15AFB4F8083D093A004C0939F04BB
:102CF000DFCFDF91CF91089583E00C9488150F9377
:102D00001F93CF93DF931F92CDB7DEB78C016983FA
:102D100080911801882359F041E050E0BE016F5FB7
:102D20007F4F83E00E945513181619063CF081E08E
:102D300090E0F8019383828380E090E00F90DF9130
:102D4000CF911F910F910895FC0120812E5F208368
:102D500042E450E06AE972E080E80C94F013FC0170
:102D600081819081913A59F4813209F04BC047E05A
:102D700050E061E171E080E00E94F01345C09132C3
:102D800009F040C0803239F467E070E081E191E001
:102D90000E94341439C0823209F034C08281809399
:102DA00018018091110190911201A0911301B0912D
:102DB0001401803B9440A105B10531F580911801C3
:102DC00080FD12C087E797E7909301088093000881
:102DD0002BE088E190E00FB6F894A895809360000E
:102DE0000FBE2093600010C088E10FB6F894809366
:102DF0006000109260000FBEA8951092010810921A
:102E0000000802C080E0089581E0089508951092BE
:102E100054041092530488EE93E0A0E0B0E0809355
:102E2000550490935604A0935704B093580484E338
:102E300093E090935204809351040895FF920F936E
:102E40001F93CF93DF93EC01F62EE881F981048084
:102E5000F581E02D09958C01E881F9810680F781E3
:102E6000E02D6F2DCE010995C8019927DF91CF91F3
:102E70001F910F91FF900895FC0120812F5F208307
:102E800049E150E06CE573E080E80C94F01345E60E
:102E900050E065E773E080E80C94F013EF92FF9246
:102EA0000F931F93CF93DF931F92CDB7DEB7898324
:102EB0008B017A0141E050E0BE016F5F7F4F84E0FB
:102EC0000E945513A701B80184E40E9455130F9086
:102ED000DF91CF911F910F91FF90EF900895FC012A
:102EE00091818081813A31F481E0913091F0933089
:102EF00089F411C0813271F49B3021F48281809376
:102F00001A0105C09A3031F482818093190181E061
:102F10000895089580E0089548E050E082E00C9420
:102F20004E17CF93DF93DC01683818F0E8E7E60F1F
:102F300025C0E62FF0E067FF11C0E058F10981E0FD
:102F400090E001C0880FEA95EAF714969C911497D7
:102F5000982B14969C931497E0E010C0E452FD4F18
:102F6000E491EE2309F440C0E7FF08C014968C9169
:102F70001497826014968C931497EF7716968C9121
:102F800016978E1741F117968C9117978E1719F196
:102F900018968C9118978E17F1F019968C911997B5
:102FA0008E17C9F01A968C911A978E17A1F01B965E
:102FB0008C911B978E1779F080E090E0ED01C80F9F
:102FC000D91F2E81211102C0EE8305C001968630E3
:102FD0009105A1F709C0BD016C5F7F4FCD010E9433
:102FE0008C1781E090E008C081E090E013969C93FC
:102FF0008E93129780E090E0DF91CF91089568382A
:1030000018F0E8E7E60F25C0E62FF0E067FF12C0F2
:10301000E058F10921E030E001C0220FEA95EAF71B
:103020002095DC0114963C911497322314963C931E
:10303000E0E00FC0E452FD4FE491EE2329F1E7FFF9
:1030400008C0DC0114962C9114972D7F14962C93B4
:10305000EF7720E030E0EE2351F0DC01A20FB31F48
:1030600016964C9116974E1302C016961C922F5F1F
:103070003F4F2630310579F7BC016C5F7F4F0E94CE
:103080008C1781E090E0089580E090E00895FC01C5
:103090001682178210861186128613861482BC014E
:1030A0006C5F7F4F0C948C171092AF041092A604A3
:1030B0001092A50486E493E09093A4048093A30463
:1030C00008955058BB27AA270ED0EDC1B6D130F0D5
:1030D000BBD120F031F49F3F11F41EF486C10EF4F1
:1030E000E095E7FB7CC1E92F00D280F3BA176207B5
:1030F00073078407950718F071F49EF518C20EF453
:10310000E0950B2EBA2FA02D0B01B90190010C01F7
:10311000CA01A0011124FF27591B99F0593F50F40F
:10312000503E68F11A16F040A22F232F342F442767
:10313000585FF3CF469537952795A795F04053955F
:10314000C9F77EF41F16BA0B620B730B840BBAF02F
:103150009150A1F0FF0FBB1F661F771F881FC2F79A
:103160000EC0BA0F621F731F841F48F487957795AE
:103170006795B795F7959E3F08F0B3CF9395880F65
:1031800008F09927EE0F979587950895DF93DD272F
:10319000B92FBF7740E85FE31616170648075B07AD
:1031A00010F4D92FCFD19F938F937F936F9380D2B9
:1031B000E4EEF0E01DD177D12F913F914F915F91D7
:1031C000D4D1DD2349F09058A2EA2AED3FE049EC42
:1031D0005FE3D0785D2787DFDF9165C1DCD008F43D
:1031E00081E0089539D1E3956FC10CD05CC12CD139
:1031F00040F023D130F021F45F3F19F0F0C05111BD
:1032000097C1F3C072D198F39923C9F35523B1F351
:10321000951B550BBB27AA2762177307840738F045
:103220009F5F5F4F220F331F441FAA1FA9F333D0A4
:103230000E2E3AF0E0E830D091505040E695001C58
:10324000CAF729D0FE2F27D0660F771F881FBB1F14
:10325000261737074807AB07B0E809F0BB0B802DEE
:10326000BF01FF2793585F4F2AF09E3F510568F03A
:10327000B6C05EC15F3FECF3983EDCF38695779570
:103280006795B795F7959F5FC9F7880F911D96953C
:10329000879597F90895E1E0660F771F881FBB1F98
:1032A000621773078407BA0720F0621B730B840B45
:1032B000BA0BEE1F88F7E095089504D06894B11119
:1032C00037C108951AD188F09F5790F0B92F9927E8
:1032D000B751A0F0D1F0660F771F881F991F1AF021
:1032E000BA95C9F712C0B13081F021D1B1E008958B
:1032F0001EC1672F782F8827B85F39F0B93FCCF30C
:10330000869577956795B395D9F73EF49095809516
:10331000709561957F4F8F4F9F4F0895E89409C036
:1033200097FB3EF490958095709561957F4F8F4FF8
:103330009F4F9923A9F0F92F96E9BB279395F6950E
:10334000879577956795B795F111F8CFFAF4BB0F8C
:1033500011F460FF1BC06F5F7F4F8F4F9F4F16C0F0
:10336000882311F096E911C0772321F09EE8872F7A
:10337000762F05C0662371F096E8862F70E060E036
:103380002AF09A95660F771F881FDAF7880F9695AF
:10339000879597F90895990F0008550FAA0BE0E853
:1033A000FEEF16161706E807F907C0F01216130607
:1033B000E407F50798F0621B730B840B950B39F447
:1033C0000A2661F0232B242B252B21F408950A26AD
:1033D00009F4A140A6958FEF811D811D089597F9ED
:1033E0009F6780E870E060E008959FEF80EC0895AB
:1033F000DF93CF931F930F93FF92EF92DF927B01A6
:103400008C01689405C0DA2EEF01AFD0FE01E8947C
:10341000A5912591359145915591AEF3EF0163DE6C
:10342000FE019701A801DA9479F7DF90EF90FF9001
:103430000F911F91CF91DF91089500240A941616E1
:10344000170618060906089500240A941216130692
:10345000140605060895C9CF50D0E8F3E894E0E0DB
:10346000BB279F57F0F02AED3FE049EC06C0EE0F76
:10347000BB0F661F771F881F28F0B23A62077307D9
:10348000840728F0B25A620B730B840BE3959A956C
:1034900072F7803830F49A95BB0F661F771F881F2C
:1034A000D2F790483FC1092E0394000C11F48823F1
:1034B00052F0BB0F40F4BF2B11F460FF04C06F5FEC
:1034C0007F4F8F4F9F4F0895EF93E0FF06C0A2EA12
:1034D0002AED3FE049EC5FEB06DEE5DF0F90039459
:1034E00001FC9058E1E1F1E029C157FD9058440FEB
:1034F000551F59F05F3F71F04795880F97FB991F53
:1035000061F09F3F79F0879508951216130614060F
:10351000551FF2CF4695F1DF08C01616170618069C
:10352000991FF1CF86957105610508940895E89477
:10353000BB2766277727CB0197F908952CDF08F47E
:103540008FEF08959B01AC0160E070E080E89FE39D
:103550004CCE0BD0A8CF71DF28F076DF18F0952382
:1035600009F03DCF42CF1124E3CFBFDFA0F3959FF9
:10357000D1F3950F50E0551F629FF001729FBB275A
:10358000F00DB11D639FAA27F00DB11DAA1F649F06
:103590006627B00DA11D661F829F2227B00DA11DB9
:1035A000621F739FB00DA11D621F839FA00D611D3F
:1035B000221F749F3327A00D611D231F849F600D60
:1035C000211D822F762F6A2F11249F5750408AF099
:1035D000E1F088234AF0EE0FFF1FBB1F661F771F25
:1035E000881F91505040A9F79E3F510570F0F7CECB
:1035F0009FCF5F3FECF3983EDCF386957795679518
:10360000B795F795E7959F5FC1F7FE2B880F911D42
:103610009695879597F90895FA01EE0FFF1F30965A
:103620002105310599F16115710561F48038BFE319
:103630009B0749F168949038810561F08038BFEFAD
:103640009B0741F0992342F5FF3FE1053105210534
:1036500011F1E8940894E795D901AA2329F4AB2F36
:10366000BE2FF85FD0F310C0FF5F70F4A695E0F7AF
:10367000F73950F019F0FF3A38F49F779F930CD048
:103680000F9007FC905808953EF0AFCE60E070E0D8
:1036900080E89FE308954FE79F775F934F933F93B1
:1036A0002F9398D02F913F914F915F9152DF0CC093
:1036B0009B01AC014ECF6FDE880B990B089519F476
:1036C0000EF08DCE34CF91CE18DFC8F39638C0F708
:1036D00007F80F92E8942BE33AEA48EB5FE747DFFD
:1036E0000F920F920F924DB75EB70F92B3D0EFE2E9
:1036F000F1E07EDE4F915F91EF91FF91E595EE1F36
:10370000FF1F49F0FE57E0684427EE0F441FFA956B
:10371000E1F74195550B25D00F9007FE13CF089583
:103720009F3F31F0915020F4879577956795B79535
:10373000880F911D9695879597F908959F938F937C
:103740007F936F93FF93EF939B01AC0102DFEF91A7
:10375000FF914EDE2F913F914F915F91FACE3FCE78
:10376000DFCFCBDEE8F39923D9F3940F511DBBF3E0
:103770009150504094F059F0882332F0660F771F33
:10378000881F91505040C1F79E3F510544F7880F64
:10379000911D9695879597F908955F3FACF0983EF7
:1037A0009CF0BB27869577956795B79508F4B1602F
:1037B0009395C1F7BB0F58F711F460FFE8CF6F5F27
:1037C0007F4F8F4F9F4FE3CFB3CE0EF0A9CF0DCEDB
:1037D000689405CE92DEC8F39923D1F3C6F3DF9344
:1037E000CF931F930F93FF92C92FDD2788232AF0D1
:1037F0002197660F771F881FDAF720E030E040E856
:103800005FEB9FE3883920F0803E30F021968F7780
:1038100059DCE7E5F1E003C055DCE4E8F1E0E8DD80
:103820008B01BE01EC01FB2E6F5771097595771F57
:10383000880B990B75DD28E132E741E35FE395DE04
:10384000AF2D9801AE01FF900F911F91CF91DF91A5
:103850004ADC29CEFA01DC01AA0FBB1F9B01AC0197
:10386000BF5728F422273327442750781FC0B75169
:1038700088F4AB2F0024469537952795011CA39516
:10388000D2F3002069F0220F331F441FB395DAF3FF
:103890000DD017CC61307105A0E88A07B94630F425
:1038A0009B01AC016627772788279078309621F016
:1038B0002083318342835383089597FB072E16F4A8
:1038C000009407D077FD09D00E94991C07FC05D011
:1038D0003EF4909581959F4F0895709561957F4F27
:1038E0000895A1E21A2EAA1BBB1BFD010DC0AA1F41
:1038F000BB1FEE1FFF1FA217B307E407F50720F059
:10390000A21BB30BE40BF50B661F771F881F991FD3
:103910001A9469F760957095809590959B01AC011C
:10392000BD01CF010895EE0FFF1F0590F491E02D2A
:103930000994AA1BBB1B51E107C0AA1FBB1FA617F6
:10394000B70710F0A61BB70B881F991F5A95A9F748
:0E39500080959095BC01CD010895F894FFCFAD
:10395E000000803F0000803F0000803F0000803F5D
:10396E000100E1000000000000010143616C69628A
:10397E00726174696E6720746865204D61676E654B
:10398E00746F6D65746572202E2E2E2E2E2E2E20A7
:10399E004761696E00785F6761696E5F6F66667317
:1039AE006574203D2000795F6761696E5F6F6666A2
:1039BE00736574203D20007A5F6761696E5F6F6684
:1039CE0066736574203D200043616C696272617498
:1039DE00696E6720746865204D61676E65746F6DE2
:1039EE0065746572202E2E2E2E2E2E2E204F66667C
:1039FE0073657400506C6561736520726F746174C9
:103A0E006520746865206D61676E65746F6D657491
:103A1E0065722032206F7220332074696D657320B9
:103A2E00696E20636F6D706C657465206369726377
:103A3E00756C6573207769746820696E206F6E658A
:103A4E00206D696E757465202E2E2E2E2E2E2E2E26
:103A5E002E2E2E2E2E20005374617274696E6720E6
:103A6E004465627567206461746120696E2000335D
:103A7E00003200310030002A000900456E642044F7
:103A8E0065627567202D2D20284F6666736574203C
:103A9E0043616C6962726174696F6E29004F66666C
:103AAE00736574207820203D2000206D47004F66FE
:103ABE0066736574207920203D20004F666673651D
:103ACE0074207A20203D20004761696E2075706455
:103ADE006174656420746F20203D2000206D472F97
:103AEE00626974002C0068656C6C6F20617264757D
:103AFE00696E6F00636F6D706173735F63616C6984
:103B0E0062726174696F6E5F737461727400636F59
:103B1E006D706173735F63616C6962726174696FFA
:103B2E006E5F66696E73680073657474696E675F45
:103B3E00636F6D706173735F626173655F616E67F2
:103B4E006C650073746172745F73656E645F64613B
:103B5E0074610073746F705F73656E645F6461741B
:103B6E00610000000000AA0B7D0B520B5A0B6D0B6F
:103B7E007C0B6E616E00696E66006F7666002E00BD
:103B8E00000000007F16A0100F1633161C167C16B0
:103B9E005616000000001E17A0109117FF174718A9
:00000001FF
